:020000040800F2
:10000000D80E0020D10100087F420008C334000848
:100010007D42000885090008E54F00080000000047
:10002000000000000000000000000000514900082E
:10003000ED0D000800000000BF450008A9490008B8
:10004000EB010008EB010008EB010008EB010008E0
:10005000EB010008EB010008EB010008EB010008D0
:10006000EB010008EB010008EB010008EB010008C0
:10007000EB010008EB010008EB010008EB010008B0
:10008000EB010008EB010008EB010008EB010008A0
:10009000EB010008EB010008EB010008EB01000890
:1000A000EB010008EB010008EB010008EB01000880
:1000B000294A0008EB010008EB010008EB010008E9
:1000C000EB010008EB010008EB010008EB01000860
:1000D000EB010008EB010008EB010008D94F000814
:1000E000F10D0008EB010008EB01000800F002F838
:1000F00000F05FF80AA090E8000C82448344AAF163
:100100000107DA4501D100F054F8AFF2090EBAE860
:100110000F0013F0010F18BFFB1A43F0010318473B
:1001200040B1000060B100000A444FF0000C10F82C
:10013000013B13F0070408BF10F8014B1D1108BF65
:1001400010F8015B641E05D010F8016B641E01F805
:10015000016BF9D113F0080F1EBF10F8014BAD1C55
:100160000C1B09D16D1E58BF01F801CBFAD505E073
:1001700014F8016B01F8016B6D1EF9D59142D6D3CD
:10018000704700000023002400250026103A28BFF5
:1001900078C1FBD8520728BF30C148BF0B607047F9
:1001A000642900F09B80002070471FB51FBD10B56B
:1001B00010BD00F061FA1146FFF7F7FF06F024FCCE
:1001C00000F07FFA03B4FFF7F2FF03BC05F0A6F8D6
:1001D0000948804709480047FEE7FEE7FEE7FEE7DB
:1001E000FEE7FEE7FEE7FEE7FEE7FEE70448054917
:1001F000054A064B70470000254A0008ED0000083C
:10020000D8080020D80E0020D80A0020D80A0020E4
:10021000704710B54C1084EA530404D54042C1F134
:10022000000138BF491E1B4204D55242C3F10003EE
:1002300038BF5B1E00F00FF914F0804F04D040422D
:10024000C1F1000138BF491E14F0004F04D05242E2
:10025000C3F1000338BF5B1E10BD00000FB404499A
:1002600010B503AA029800F0D1F910BC5DF814FB98
:10027000500000202DE9F0410E4604460020206287
:100280002046E168884730B3252805D0D4E901210C
:100290009047206A401CF2E7E16820460027884723
:1002A000050018D0A5F14100192802D820354FF4D7
:1002B00000673246294620462760FFF771FF40B1AC
:1002C000012804D0F61D26F007060836D8E7361DAB
:1002D000D6E72846DAE7206ABDE8F0812DE9F0414B
:1002E0000646002410687529314616A510D0AFF3D4
:1002F0000080002802DA404213A507E031688A072F
:1003000001D512A502E0490704D511A5012401E099
:10031000AFF3008000210A2206F1240709E0B0FBB8
:10032000F2FCB0FBF2F302FB1C00303078541846AC
:10033000491C0028F3D123462A463046BDE8F04147
:1003400000F00BB9000000002D0000002B000000A1
:100350002000000040EA010310B59B070FD1042ADA
:100360000DD310C808C9121F9C42F8D020BA19BA80
:10037000884201D9012010BD4FF0FF3010BD1AB1E5
:10038000D30703D0521C07E0002010BD10F8013B3A
:1003900011F8014B1B1B07D110F8013B11F8014B61
:1003A0001B1B01D1921EF1D1184610BD02F0FF03B4
:1003B00043EA032242EA024200F002B84FF0000290
:1003C0000429C0F0128010F0030C00F01B80CCF167
:1003D000040CBCF1020F18BF00F8012BA8BF20F8D5
:1003E000022BA1EB0C0100F00DB85FEAC17C24BF29
:1003F00000F8012B00F8012B48BF00F8012B7047D3
:100400004FF0000200B5134694469646203922BFAD
:10041000A0E80C50A0E80C50B1F12001BFF4F7AFF8
:10042000090728BFA0E80C5048BF0CC05DF804EBDA
:10043000890028BF40F8042B08BF704748BF20F848
:10044000022B11F0804F18BF00F8012B7047704746
:1004500070477047704753EA020C00F069802DE93D
:10046000F04B4FF00006002B1FBFB3FA83F503FAE1
:1004700005F424FA05F65E4012BF1643B2FA82F57F
:1004800002FA05F4C5F120051EBF22FA05FC44EA74
:100490000C04203556EA044C4FEA144418BF641C7F
:1004A0004FF000084FF00009904271EB030C39D374
:1004B000002919BFB1FA81F701FA07F6B0FA80F7FF
:1004C00000FA07F6C7F120071EBF20FA07FC46EA2C
:1004D0000C062037B6FBF4FCA7EB0507103F07F02E
:1004E0001F0BCBF120060CFA0BFB2CFA06F644BFCF
:1004F000B3460026202FA4BF5E464FF0000B5BEAF8
:10050000060C08BF4FF0010B19EB0B09ABFB027C8B
:1005100048EB0608C01B06FB02CC0BFB03CC71EBBF
:100520000C01C1E70B46024641464846BDE8F08B48
:1005300013B54FF000004FF00001AFF30080BDE8AD
:100540001C40704710B500F073F8006810BD10B57E
:10055000044600F06DF8046010BD2DE9F0470D462B
:1005600099469246044600F124080168880604D59D
:10057000E06921F01001216000E00120A84201DDC6
:10058000471B00E00027A1697A1902EB0900081A4D
:10059000A0612078C00602D42046AFF30080002678
:1005A00008E0D4E901211AF806009047206A401CAF
:1005B000761C20624E45F4DB2078C0060AD5204622
:1005C000AFF3008006E0D4E9012130209047206A93
:1005D000401C2062381EA7F10107F4DC07E0D4E9D3
:1005E000012118F805009047206A401C2062281E4F
:1005F000A5F10105F3DC2046AFF30080207800066A
:1006000002D50220BDE8F0870120FBE7074B70B55B
:100610000D467B4400F015F80446284600F024F807
:1006200010B14FF0FF3070BD204670BD1F5E00005E
:10063000004870477408002001694A1C026108786C
:10064000704700B58FB0CDE9013100210591054912
:100650007944CDE9031011466846FFF70BFE0FB051
:1006600000BD0000E5FFFFFF007B00F08000704749
:1006700000487047740800207546FFF7F9FFAE4642
:1006800005006946534620F00700854618B020B59E
:10069000FFF7ACFDBDE820404FF000064FF000072B
:1006A0004FF000084FF0000B21F00701AC46ACE81A
:1006B000C009ACE8C009ACE8C009ACE8C0098D4687
:1006C000704710B50446AFF300802046BDE81040E7
:1006D000FFF778BD70B5044600688168C943C90753
:1006E00017D1816821F00101816001F065FA0546AA
:1006F0000AE000BF01F060FA401B022804D920681C
:100700008068C043C00706D020688068C043C00727
:10071000F0D0002070BDA06A40F01000A062E06A36
:1007200040F00100E062012070BD0000F8B5002635
:100730000446009600688168C943C9072DD08168C6
:1007400041F001018160164816490068B0FBF1F0E4
:1007500000E0401E00900028FBD101F02DFA054674
:1007600016E000BF01F028FA401B022810D92068CB
:100770008068C043C0070BD0A06A40F01000A062A0
:10078000E06A40F00100E06284F824600120F8BDD6
:1007900020688068C043C007E4D10020F8BD000095
:1007A0006000002040420F002DE9F047444803213B
:1007B00086B000684000A0F5FA6090FBF1F6002ECC
:1007C00001DA002602E0642E00DD64263D4CA068BC
:1007D00008F006FD3C4DDFF8F4802A46434608F059
:1007E000EFF908F057F9070000D54742606808F0B4
:1007F000F7FC2A46434608F0E3F908F04BF90500F8
:1008000000D545422078F0B100202070304C21788E
:1008100001291AD0002846D02E48006808F036FE7C
:1008200005462D48006808F031FE04462B48006854
:1008300008F02CFE06B02B462246BDE8F0470146E4
:1008400027A0FFF70BBD0120DFE72948006808F06B
:100850001DFE82462748006808F018FE814626489B
:10086000006808F013FE80462448006808F00EFE79
:1008700007462348006808F009FE0646214800683C
:1008800008F004FE0025CDE902A501460595049572
:100890003B4632461CA0CDE90089FFF7DFFC2570FE
:1008A00006B0BDE8F0872048006808F0EFFD009032
:1008B00033463A4629461DA0FFF7D0FCF0E700007A
:1008C00030000020B40100209A9999999999F13F3C
:1008D0004400002098010020900100209401002095
:1008E0007B4225643A25643A25647D24000000009B
:1008F0001C00002018000020140000201000002020
:100900000C000020080000207B4325643A25643A4F
:1009100025643A25643A25643A25643A25643A25E3
:10092000643A25647D240000340000207B41256466
:100930003A25643A25643A25647D240070B580F038
:10094000004581F000400B49096808F007FE0A499C
:1009500008F0DAFC04460A480849006808F0D4FCAC
:10096000294608F0FBFD214608F0C4FEBDE87040B2
:1009700008F08CBD0C0000200000C8420000C8C276
:1009800008000020FEE7000070B504461348144A32
:100990000023007800B301281FD10A2C1DDA084675
:1009A00006F0C8FE116C104C0844C51F0D491064B8
:1009B000AD2D01D20B702370A0F1B5060125B32E29
:1009C00001D225700B70A0F26916B32E01D22370EC
:1009D0000D70B0F5077F00DD136470BD02000020CC
:1009E0008800002006000020070000202DE9F041CB
:1009F0000D4C0A4607460B4E1046216808F0AEFD26
:100A0000216B08F019FC0146084808F0A7FD0546CF
:100A10003146384608F0A2FD294608F00DFC206357
:100A2000BDE8F0810AD7A33CCC00002048E17A3F22
:100A30002DE9F0410D4C0A4607460B4E1046216841
:100A400008F08CFD216E08F0F7FB0146084808F01D
:100A500085FD05463146384608F080FD294608F0F8
:100A6000EBFB2066BDE8F0810AD7A33CCC00002058
:100A700048E17A3FF8B5374F0026012000963870DC
:100A800002466B467521682005F038FF32A0FFF75B
:100A9000E5FB9DF8000068280CD0BFF34F8F374866
:100AA0000168374A01F4E06111430160BFF34F8FE1
:100AB00000BFFDE706F0B0F8002848D1782006F026
:100AC00069FD10B924A0FFF7C9FB782005F0D6FF17
:100AD00010B92CA0FFF7C2FBC82006F01BFD10B90F
:100AE00032A0FFF7BBFB05F041F910B939A0FFF7C1
:100AF000B5FB4548044605F063FF0546E01C05F0DC
:100B00005FFF45EAC005A01D05F05AFF45EA8010C9
:100B100080B205F0EBFA10B93CA0FFF79FFB40F262
:100B2000731004F0FBFF10B942A0FFF797FBC82039
:100B300005F044FA10B949A0FFF790FB07F098FCC4
:100B4000012006F00DFC10B94DA0FFF787FB3E70A9
:100B5000F8BD0000030000206D70755F7365745F61
:100B600073656E736F7220636F6D706C6574652052
:100B70002E2E2E2E2E2E0D0A000000000CED00E071
:100B80000400FA056D70755F636F6E666967757254
:100B9000655F6669666F20636F6D706C6574652054
:100BA0002E2E2E2E2E2E0D0A000000006D70755F69
:100BB0007365745F73616D706C655F7261746520DD
:100BC000636F6D706C657465202E2E2E2E2E2E0D8B
:100BD0000A000000646D705F6C6F61645F6D6F741C
:100BE000696F6E5F6472697665725F6669726D7750
:100BF00061726520636F6D706C657465202E2E2E9A
:100C00002E2E2E0D0A000000A8010020646D705FDA
:100C10007365745F6F7269656E746174696F6E205D
:100C2000636F6D706C657465202E2E2E2E2E2E0D2A
:100C30000A000000646D705F656E61626C655F66DE
:100C400065617475726520636F6D706C6574652085
:100C50002E2E2E2E2E2E0D0A00000000646D705FC9
:100C60007365745F6669666F5F7261746520636F38
:100C70006D706C657465202E2E2E2E2E2E0D0A00A2
:100C80006D70755F7365745F646D705F73746174AC
:100C90006520636F6D706C657465202E2E2E2E2E70
:100CA0002E0D0A0070B51648006808F02BFC154997
:100CB00008F02AFB044614480121006800F06CF893
:100CC00012480A210068B0FBF1F008F033FC022161
:100CD00000F062F80321204600F05EF8032000F0E7
:100CE0001BF80B4A00210B4C131D06E015686D061E
:100CF000FCD5655C1D60491CC9B28142F6D370BD4C
:100D0000300000200000C8423400002040000020D5
:100D1000003801401A0800200A2839D890B31D492C
:100D200024220B280A7033D2DFE800F032060A0EC4
:100D300012161A1E22272D00052048710620704722
:100D4000092048720A2070470D2048730E20704712
:100D500011204874122070471520487516207047DE
:100D6000192048761A2070471D2048771E207047AA
:100D7000212081F8210022207047252081F82500BC
:100D80002620704704E0292081F829002A20F8E76E
:100D90000020F6E71A08002003B50A2912D8002916
:100DA00010D00B290ED2DFE801F00D06080E10124C
:100DB0001416181A1C00012200E005220A49684690
:100DC00000F034F80CBD0922F8E70D22F6E71122F5
:100DD000F4E71522F2E71922F0E71D22EEE72122BF
:100DE000ECE72522EAE700001A080020704700001F
:100DF0000A48D0F8300168B9094A1078012809D1A9
:100E000008480178491C017001780A2902D10021A3
:100E1000017011704FF4805000F0CCBD00002142F1
:100E2000040000200500002072B6FEE703788B5412
:100E3000114443784B7082788A70C078C8707047CC
:100E40002DE9F04F85B0044603F052FD9C49DFF8D0
:100E500074B29D4F0860012C7ED04421D02002F056
:100E600031FB04464321D02002F02CFB04EB002090
:100E700008F060FB04464621D02002F023FB054623
:100E80004521D02002F01EFB05EB002008F052FBAC
:100E900080464821D02002F015FB05464721D0208E
:100EA00002F010FB05EB002008F044FB06463C2155
:100EB000D02002F007FB05463B21D02002F002FBC8
:100EC00005EB002008F036FB82463E21D02002F0E0
:100ED000F9FA05463D21D02002F0F4FA05EB002096
:100EE00008F028FB81464021D02002F0EBFA0546AD
:100EF0003F21D02002F0E6FA05EB002008F01AFBB3
:100F00000546B4F18E4F05DD4FF08F41204608F0C5
:100F1000F1FB04464046B8F18E4F04DD4FF08F419F
:100F200008F0E8FB8046B6F18E4F05DD4FF08F41AB
:100F3000304608F0DFFB06465046BAF18E4F04DD1E
:100F40004FF08F4108F0D6FB82464846B9F18E4FEC
:100F500006DD4FF08F4100E052E008F0CBFB814608
:100F6000B5F18E4F05DD4FF08F41284608F0C2FBEA
:100F7000054684F000415046CBF8001008F030F9E7
:100F8000DFF848A1DFF848B152465B4607F0EEFBB8
:100F900007F0FEFA0290484608F022F952465B46F6
:100FA00007F0E4FB07F0F4FA0190284608F018F97E
:100FB00052465B4607F0DAFB07F0EAFA009020465B
:100FC00008F00EF9DFF80CB14FF066394A465B467F
:100FD00007F0CCFB07F0DCFA8246404608F000F947
:100FE0004A465B4607F0C2FB07F0D2FA81463A4810
:100FF000DFF8E8B0007802281ED0032848D056E079
:1010000003F060FB3648374C39680160B4F90000E2
:1010100008F078FACBF80000B4F9040008F072FA8E
:10102000314908603148B0F9040008F06BFA3049E2
:10103000086005B0BDE8F08FDDE900108AF00042DD
:1010400002F000FC08F0CCF82A4CDFF8AC80224615
:10105000434607F08BFBDFF8A4A00022534607F0BD
:10106000AFFD07F095FA38604A460099029802F001
:1010700015FD08F0B5F82246434607F077FB00223D
:10108000534607F09DFD07F083FACBF800000EE011
:1010900021460498FFF7AAFC80F0004038604146E2
:1010A0000398FFF7C5FC80F00041CBF800100C4816
:1010B000396801600C4806600D480560B9E700001A
:1010C0002C00002038000020940100208FC2F52859
:1010D0005C1F9A40665E8D40000000209001002059
:1010E000340000209C0100203C000020A2010020D0
:1010F00048000020F1D4C853FB210940008066401D
:101100002DE9F05F8B4607F0F4FC274C00222346C4
:1011100007F056FD6FF001052A4608F092FB234EBA
:101120000022334607F022FB214F00223B4607F006
:101130001DFB07F02DFA08F053F8DFF87880DFF890
:1011400078A04246534607F03BFDDFF8709000223E
:101150004B4607F035FD07F01BFA19490860584661
:1011600007F0C7FC0022234607F02AFD2A4608F0B4
:1011700068FB0022334607F0F9FA00223B4607F0ED
:10118000F5FA07F005FA08F02BF84246534607F047
:1011900017FD00224B4607F013FD07F0F9F9094946
:1011A0000860BDE8F09F00000000694000003E407C
:1011B00000002A40F1D4C853FB21094000C0504030
:1011C000B8010020BC01002010B5114800F06EFAF3
:1011D0000A210F4800F0CCF90D4800F00BF980B25D
:1011E00007F09EFC4FF066320A4B07F0E9FC002244
:1011F000094B07F0E5FC0022084B07F0E1FC6FF01B
:101200000B0208F01EFBBDE8104007F043BC0000D5
:101210001002002066660A40000026400000594087
:10122000F8B500250446009590F82400012808D060
:10123000012084F824002046FFF74CFA060002D073
:1012400053E00220F8BDA06A20F4885040F002006C
:10125000A062022000F062FD26490968B1FBF0F0AF
:10126000400000E0401E00900028FBD12046FFF720
:101270005DFA2068816841F00801816000F09CFC03
:10128000074608E000F098FCC01B0A2803D9206834
:101290008068000715D4206880680007F2D42068B1
:1012A000816841F00401816000F086FC074612E08D
:1012B00000F082FCC01B0A280DD920688068400716
:1012C00009D5A06A20F0020040F01000A06284F866
:1012D00024500120F8BD206880684007E8D4A06A47
:1012E00020F0020040F00100A06284F82450304653
:1012F000F8BD000060000020F8B50024009490F8CC
:1013000024202546012A12D0012280F824204A6890
:101310001F23072A0DD20668776B521E02EB82024A
:1013200093409F430B6893401F43776319E002206B
:10133000F8BD06680D2A0AD2376BD21F02EB820273
:1013400093409F430B6893401F43376309E0F76A5C
:101350000D3A02EB820293409F430B6893401F4378
:10136000F7620A68072306680A2A0AD3F7680A3A66
:1013700002EB420293409F438B6893401F43F76008
:1013800008E0376902EB420293409F438B68934029
:101390001F4337610A68102A01D0112A20D1124B4D
:1013A00002689A4217D193681B0219D4936843F4D8
:1013B000000393600968102912D10C490C4A09688E
:1013C000B1FBF2F101EB8101490000E0491E0091FF
:1013D0000029FBD104E0816A41F0200181620124EF
:1013E00080F824502046F8BD002401406000002011
:1013F00040420F000068C06C704700002DE9F041CA
:101400004FF0000704003D467ED0A06A002628B9B0
:10141000E66284F82460204600F07EF82046FFF75C
:1014200059F9A16AC90600D420B1A06A40F01000A1
:10143000A06269E0A16A21F4885141F00201A16231
:101440006268E169237B0A4347EA43010A43A168D2
:101450004FF48077B94209D0012907D05FF000012D
:1014600094F814C0BCF1010F02D00AE03946F7E746
:10147000F3B1A36A43F02003A362E36A43F00103DC
:10148000E3622368D3F804C02CF4694C4CEA010CE5
:10149000C3F804C021688B68DFF870C003EA0C034E
:1014A00013438B60A168B9420BD0012909D00CE02D
:1014B000DFF85CC0A3690CEB43330B4343F40061DA
:1014C000DFE7218A0D05A5F580152168CB6A23F495
:1014D00070032B43CB62216889680E4B19409142FF
:1014E00008D1E662A16A21F0020141F00101A16286
:1014F000BDE8F081A06A20F0020040F01000A06278
:10150000E06A40F00100E0620120F1E7FDF7E1FF51
:1015100000E0FFFFFE0E1FFF00B585B00021009127
:1015200001910291039100680E49884218D10E483A
:10153000816941F400718161816901F40071049154
:10154000816941F0080181618069694600F0080005
:1015500004900120009003200190044800F036FA26
:1015600005B000BD0024014000100240000C014005
:101570002DE9F84300270D460446009700F01CFBB8
:10158000804620688168C90508D5A06A40F020001F
:10159000A06284F824700120BDE8F8834168C90581
:1015A00003D4C06A10F4700F2AD0022000F0B6FBFA
:1015B0003B490968B1FBF0F62068036939490B42E1
:1015C0004FEA61014FEAA1121FD1C3684FEA611CC3
:1015D00013EA0C0F19D103690B4225D1C0681042E0
:1015E00022D1142023E0681C0AD02DB100F0E4FAC7
:1015F000A0EB0800A84203D920680068800725D521
:10160000206800688007EED52DE003690B4202D107
:10161000C168114206D0026923490A4206D1C06856
:10162000084203D1542002E0292000E0FC20464378
:10163000009816E0681C11D02DB100F0BDFAA0EBA7
:101640000800A8420AD90098B04207D2A06A40F028
:101650000400A06284F8247003209DE70098401CD9
:101660000090B042E6D321686FF012000860A06AD3
:1016700040F40070A06220688068C0F342400728F0
:101680000CD1207B50B9A06A20F48070A062A06ABF
:10169000C00403D4A06A40F00100A06200207BE7F0
:1016A00060000020244992244992240070B5044629
:1016B00090F8240001280DD0012084F82400204651
:1016C000FFF734F802004FF0000005D084F8240042
:1016D000104670BD022070BDA16A40F201239943FB
:1016E00041F48071A1621F4D23681F49AB4218D19C
:1016F0000E6816F4702F14D0A66A46F48016A662FF
:101700000E68760505D5A66A26F4005646F480567E
:10171000A662A66AF6040AD5E66A26F00606E6621E
:1017200006E0A66A26F48016A6625E68E9E7E06233
:1017300084F824006FF00200186020688368C3F307
:101740004243072B05D1A84208D1096811F4702F34
:1017500004D0816841F480118160B9E7816841F467
:10176000A001F9E7002801400424014010B590F8D9
:1017700021100022022905D00421816380F8202055
:10178000012010BD01680B6823F00E030B60016897
:101790000B6823F001030B6090F84030C46B01210B
:1017A00001FA03F3636080F8211080F820201046CE
:1017B00010BD000010B590F821100024022903D0BC
:1017C0000421816301243DE001680A6822F00E02D1
:1017D0000A6001680A6822F001020A601A4A016878
:1017E000914201D1012121E0174A1432914201D1E5
:1017F00010211BE0144A2832914201D1891515E0CD
:10180000114A3C32914201D189140FE00E4A503204
:10181000914202D14FF4803108E00B4A6432914288
:1018200002D14FF4801101E04FF08071064A083A6E
:101830005160012180F82110002180F82010416BB7
:1018400001B18847204610BD080002402DE9F84F3D
:10185000B0F5805F38D14A4C207810B3002020705A
:1018600048480078FFF7ECFA032003F027F84042DD
:101870000090042003F022F840428346014600987D
:10188000FFF73EFC20780025DFF8FC9001280AD005
:1018900002F0F0FF3D4C3E4E20783178084314D0E2
:1018A00016E00120DBE7FFF78FFC20616169491C2E
:1018B0006161A26964291044A0615ED190FBF1F1DD
:1018C000C9F80010A561656157E0642002F034FAA0
:1018D0002078012802D03078012802D1002002F0BF
:1018E0002BFA02F00BFA2B482B4E01683068FFF7F9
:1018F00025F807465946009803F076FB044627482A
:10190000006803F0FBF93A1901465018DFF890809F
:10191000244C511AC8F80000234F41F6F42A2160E4
:1019200043463A46514602F043FE18603A46514655
:10193000206802F03DFE20601C485B46009A31683A
:10194000006802F03DFE1A4F08B1012038705A4677
:101950000099306802F084FE00B13D70594600984D
:10196000FFF712F8D9F80010306803F01DFA20B91B
:101970002168D8F8000002F0EDFF0020BDE8F88FE4
:101980008800002000000020300000200600002019
:101990000700002038000020340000203C00002018
:1019A00024000020280000200CE5FFFF4800002054
:1019B00002000020044910B50A68024202D0086003
:1019C000FFF744FF10BD0000140401402DE9F84F5B
:1019D000DFF8B891002409F1040A0AF1040B234648
:1019E0000F270BF1040EC9E00125A5402A40AA42A9
:1019F0007DD1674ED1F804C0ACEB0608B44532D0B7
:101A000014DCBCF1030F3AD009DCBCF1000F2AD082
:101A1000BCF1010F1CD0BCF1020F31D11DE0BCF1B3
:101A2000110F17D0BCF1120F2AD119E0B8F5881F99
:101A300019D006DCB8F5803F15D0B8F5801F1FD14E
:101A400011E0B8F5001F0ED0B8F5041F18D10AE058
:101A5000CB6815E0CB681B1D12E0CB6808330FE0A4
:101A6000CB680C330CE08B682BB1012B4FF00803D3
:101A700003D0456104E0042302E0056100E0002397
:101A8000FF2A01D8064601E000F104064FEA84056A
:101A900001D9A5F12005D6F8008007FA05FC28EA4F
:101AA0000C0803FA05F548EA0508C6F800804D68F9
:101AB000ED0062D5374DAE6946F00106AE61AD6905
:101AC00024F0030605F001050095334D06EB050CE7
:101AD000DCF80850A607360F07FA06F825EA0805CD
:101AE000DFF8B880404503D14FF0000817E044E02C
:101AF000DFF8AC80404502D14FF001080FE0DFF87D
:101B0000A480404502D14FF0020808E0DFF8988039
:101B1000404502D14FF0030801E04FF0040808FAF5
:101B200006F848EA0508CCF808804D68D9F8006046
:101B3000ED034D4601D5164300E096432E604D68F7
:101B4000DAF80060AD03554601D5164300E0964330
:101B50002E604D68DBF80060ED025D4601D516434E
:101B600000E096432E604D68DEF80060AD027546D9
:101B700001D5164300E096432E60641C0D682A468A
:101B8000E5407FF431AFBDE8F88F0000000401406C
:101B90000000111000100240000001400008014048
:101BA000000C014000100140001401400AB1016125
:101BB00070470904FBE70000014880687047000097
:101BC0005400002002488168027811448160704707
:101BD00054000020074810B5016841F01001016071
:101BE000032000F089F8032000F006F800F024F844
:101BF000002010BD0020024070B50D4D04464FF48A
:101C00007A712878B1FBF0F00A490968B1FBF0F06D
:101C100000F0DAFB48B9102C07D200222146501EF2
:101C200000F04AF800206C6070BD012070BD00001B
:101C300054000020600000200E4808B5816941F082
:101C400001018161816901F001010091C16941F0E7
:101C50008051C161C06900F080500090052000F003
:101C60004BF80548416821F0E06141F000714160A6
:101C700008BD0000001002400000014000280DDBFC
:101C800000F01F02012191404009800000F1E02096
:101C9000C0F88011BFF34F8FBFF36F8F70470028DC
:101CA00009DB00F01F02012191404009800000F192
:101CB000E020C0F800117047F0B40E4B1B680C46D2
:101CC000C3F30223C3F10705042D00D90425191D10
:101CD000072901D2002300E0DB1E012606FA05F1E8
:101CE000491E214099409E40761E16403143F0BC6B
:101CF00003F08CBA0CED00E0064900F0070208681A
:101D00004FF6FF03184040EA0220034A10430860E0
:101D1000704700000CED00E00000FA0510B529A4A2
:101D200001461DCC86B08DE81D002AA02A4C006813
:101D300004900020012923D002293AD010291DD176
:101D400061682268D20119D5C1F38342C9031DF825
:101D5000020009D5616804AAC1F34041515C1F4AE1
:101D6000B2FBF1F1484301E01D4948436168490273
:101D700004D440005FF00301B0FBF1F006B010BDE9
:101D8000226AC2F30121012903D1920701D5C803B8
:101D9000F4E7022905D1626A920702D549F640406C
:101DA000ECE70329EAD121688903E7D54FF2244003
:101DB000E4E700F033F96168C1F38131491C49005F
:101DC000DAE7000002030405060708090A0B0C0DF8
:101DD0000E0F1010010200000010024000127A00E5
:101DE00000093D002DE9F84305460078354CC00751
:101DF00054D0E0690026C00008D4E06940F080506B
:101E0000E061E069012600F0805000902E480168F2
:101E1000C90512D40168804641F480710160FFF762
:101E2000CBFE074605E000BFFFF7C6FEC01B6428D7
:101E300023D8D8F80000C005F6D5206A10F4407009
:101E400021D0A98801F4407181421CD0206A1F4929
:101E5000012220F440700A6000220A602062C0075C
:101E600011D0FFF7A9FE074641F2883808E000BF0D
:101E7000FFF7A2FEC11B414502D90320BDE8F8834C
:101E8000206A8007F4D5206A696820F4407008430E
:101E900020621EB1E06920F08050E0612878800760
:101EA00005D56068A96820F4404008436060287840
:101EB000C00605D56068E96820F4800008436060CA
:101EC0000020DBE700100240007000404004424266
:101ED0002DE9F0470F46050061D0434E306800F011
:101EE0000700B84209D2306820F00700384330605C
:101EF000306800F00700B84251D128683B4C810798
:101F000012D5400703D5606840F4E060606028782F
:101F1000000703D5606840F4605060606068A9689D
:101F200020F0F000084360602878C00728D0686877
:101F3000012810D02168022810D0890700292EDA44
:101F4000616821F0030101436160FFF735FE8046BF
:101F500041F288390DE021688903EFE78901EDE757
:101F6000FFF72AFEA0EB0801494502D90320BDE88E
:101F7000F0876068696800F00C00B0EB810FEFD16A
:101F8000306800F00700B8420BD9306820F0070035
:101F900038433060306800F00700B84201D00120BB
:101FA000E5E72878400705D56068E96820F4E06037
:101FB000084360602878000706D56068296920F426
:101FC000605040EAC100606000F038F86168084A7B
:101FD000C1F30311515CC840064908600648006817
:101FE000FFF70AFE0020C2E7002002400010024076
:101FF0001A99000860000020580000200448054994
:1020000000684968044AC1F30221515CC840704726
:1020100060000020001002402A9900080448054989
:1020200000684968044AC1F3C221515CC840704746
:1020300060000020001002402A99000812A185B01B
:102040000FC98DE80F0014A0144A0068049051686D
:10205000134801F00C03042B10D0082B0ED1C1F350
:102060008343C9031DF803000AD5516804AAC1F3CC
:102070004041515C0A4A5043B0FBF1F005B0704753
:1020800008494843FAE70000020304050607080967
:102090000A0B0C0D0E0F1010010200000010024080
:1020A00000127A0000093D002DE9F84F040070D0BD
:1020B0002078C04DC00749D06868C0F3810001286E
:1020C00007D06868C0F38100022809D16868C0039E
:1020D00006D52868800339D560680028E7D035E048
:1020E0006068B0F5803F0BD010B1B0F5A02F11D0D3
:1020F000286820F480302860286820F4802002E0DE
:10210000286840F480302860606890B1FFF754FD83
:1021100006460AE0286840F480202860F0E700BF07
:10212000FFF74AFD801B642873D828688003F7D521
:102130000CE0FFF741FD064605E000BFFFF73CFD60
:10214000801B6428F0D828688003F7D420789A4E42
:1021500080074FF001094FF0000839D5686810F08A
:102160000C0F07D06868C0F38100022809D16868A5
:10217000C00306D42868800714D52069012808D137
:1021800010E02069B0B1C6F80090FFF715FD0746D2
:1021900005E00AE1FFF710FDC01B0228C4D828683B
:1021A0008007F7D52868616920F0F80040EAC1008F
:1021B00028600DE0C6F80080FFF7FEFC074604E04B
:1021C000FFF7FAFCC01B022823D828688007F7D441
:1021D000207800072CD57948A169D9B1C0F80090C2
:1021E000FFF7EAFC074604E0FFF7E6FCC01B022805
:1021F0000FD8686A8007F7D571484FF4FA51006824
:10220000B0FBF1F0009000BF0098411E0091FAD29F
:102210000EE080E0C0F80080FFF7CEFC074604E047
:10222000FFF7CAFCC01B022875D8686A8007F7D47C
:102230002078400760D5E8690027C00008D4E86925
:1022400040F08050E861E869012700F0805000907C
:102250005C480168C90513D40168834641F4807164
:102260000160FFF7A9FC824606E000BFFFF7A4FC6F
:10227000A0EB0A0064284ED8DBF80000C005F5D5B5
:10228000E06801280AD008B1052813D0286A20F098
:1022900001002862286A20F0040002E0286A40F069
:1022A00001002862E06841F2883B98B1FFF784FCA6
:1022B00082460BE0286A40F004002862EEE700BF87
:1022C000FFF77AFCA0EB0A0159455AD8286A800723
:1022D000F6D50CE0FFF770FC824605E0FFF76CFCDA
:1022E000A0EB0A0159454CD8286A8007F6D41FB1E3
:1022F000E86920F08050E861E06988B36968C1F35B
:102300008101022944D00228C6F8608004D0FFF77A
:1023100053FC044638E034E0FFF74EFC074604E087
:10232000FFF74AFCC01B02282BD828688001F7D48D
:10233000206AB0F5803F05D16868A16820F40030BC
:1023400008436860D4E908010843696821F47411FE
:1023500008436860C6F86090FFF72EFC044606E06C
:1023600025E000BFFFF728FC001B022809D82868D9
:102370008001F7D51BE000BFFFF71EFC001B022801
:1023800002D90320BDE8F88F28688001F4D40EE05C
:102390000128F7D06868226A00F48031914204D1A4
:1023A000616A00F47010884201D00120EAE7002041
:1023B000E8E7000000100240000042428004424270
:1023C000600000200070004010B5401EB0F1807F1A
:1023D00001D3012010BD4FF0E02460610F21601790
:1023E00002F014FF0020A06107202061002010BD32
:1023F0007047704710B590F83C20012A22D0012286
:1024000080F83C20CA688C6822F4407222434C68F1
:1024100022F4806222430C6822F4006222430C6999
:1024200022F4805222434C6922F400522243C969AB
:10243000002322F480420A4301684A6480F83C3059
:10244000002010BD022010BD70B590F83C20012A7C
:1024500026D0012480F83C40022280F83D20036809
:102460005A689D6822F070060A6832435A600D4B24
:1024700002689A4208D0B2F1804F05D00A4B9A42C6
:1024800002D00A4B9A4204D1496825F080031943CF
:10249000916080F83D40002180F83C10084670BDF6
:1024A000022070BD002C01400004004000080040E4
:1024B00010B5040003D094F83D0010B107E00120EE
:1024C00010BD002084F83C00204600F01FF80220D8
:1024D00084F83D00211D206802F0ACFA012084F848
:1024E000460084F83E0084F83F0084F8400084F8F9
:1024F000410084F8420084F8430084F8440084F8E2
:10250000450084F83D00002010BD000000B585B0F6
:1025100000210091019102910391184A0168184825
:10252000914209D1816941F400618161806900F4BF
:102530000060049005B000BDB1F1804FFAD1C169CF
:1025400041F00101C161C16901F00101049181699A
:1025500041F0040181618069694600F00400049043
:10256000022000900748FFF731FA012211461C2093
:10257000FFF7A2FB1C20FFF792FBDBE7002C0140DA
:10258000001002400008014090F83D10012901D0E0
:1025900001207047022180F83D100168CA6842F0AE
:1025A0000102CA6000680B49884208D0B0F1804F30
:1025B00005D00949884202D00849884204D181687F
:1025C00001F00701062903D0016841F00101016013
:1025D00000207047002C014000040040000800402B
:1025E00070B5044690F83C00012817D0012584F806
:1025F0003C50022084F83D002068826822F0770277
:1026000022F47F4282600868502830D00DDC2028F8
:102610004DD005DC98B310283BD148E0022070BDB6
:10262000302844D0402834D139E0602828D07028A0
:1026300006D0B0F5805F2CD0B0F5005F29D10AE05C
:10264000CB68D1E90121206802F037FA206881685F
:1026500041F0770109E0CB68D1E90121206802F05F
:102660002CFA2068816841F48041816011E0CA68D9
:102670004968206802F0D6FA5021206807E016E089
:10268000CA684968206802F00BFB6021206802F0EC
:102690001EFA84F83D50002084F83C0070BDCA68E2
:1026A0004968206802F0BEFA40212068EFE72268FE
:1026B00001461046EBE72DE9F0410D46040003D03A
:1026C00094F83D0018B108E00120BDE8F081002039
:1026D00084F83C00204600F041F8022084F83D00D8
:1026E0002068816844F2070291438160211D2068BF
:1026F00002F0A0F9226890689169166A2B68AF69A8
:10270000034340F20330814341EA0721A868EF699F
:1027100008434FF6FC418843E96840EA072001433B
:1027200028692F6A000140EA0730084369686D692B
:1027300026F0220646EA0515294393602268906137
:1027400054F8460B0162012004F81F09E075207659
:10275000E0762077A0750020B7E7000000B585B0CF
:10276000002100910191029103911A4B02681A48CD
:10277000C0219A4213D1C26942F00202C261C26909
:1027800002F002020492826942F0040282618069CE
:10279000009100F0040004906946104815E0104BC9
:1027A0009A4214D1C26942F00402C261C26902F0C5
:1027B00004020492826942F00802826180690091F9
:1027C00000F00800049069460648FFF7FFF805B0DE
:1027D00000BD00000004004000100240000801405D
:1027E00000080040000C014070B590F83E600446BF
:1027F00090F83F5090F8423090F84320022021B1E9
:1028000004290ED0012E1BD114E0012E18D1012B6A
:1028100016D184F83E0084F842000122002120688D
:1028200020E0012D0CD1012A0AD184F83F0084F860
:10283000430014E0012D03D1012B01D1012A01D065
:10284000012070BD84F83E0084F83F0084F8420007
:1028500084F8430001220021206802F021F90122BE
:102860000421206802F01CF92068016841F0010190
:102870000160002070BD00002DE9F041254CA04210
:1028800045D1254D2888010641D4410641F2111653
:1028900040F244471BD540F08000288004212046A8
:1028A00000F038FB68802068016A314206D1016A75
:1028B000394203D1016821F0010101602068016AF9
:1028C00021F0A00101622068016A01621BE0002181
:1028D0006980402028802068026A324206D1026A5C
:1028E0003A4203D1026822F001020260206841628C
:1028F0002068016A21F0A00101622068016A41F0AC
:10290000200101622068016841F001010160BDE819
:10291000F0810000880200204C0000202DE9F041E9
:10292000054690F83C000C46012836D0012085F879
:102930003C008AB3042A42D02868082A51D0D4E93E
:102940000023E168066A26F480560662C669076AB3
:1029500026F4407646EA03234FF6FF7606EA013175
:1029600023F4704319434FF4005627F4005306EA4A
:1029700002321A43C16102622868C16921F44061D0
:10298000C1612868C169A26841EA0221C1610020D1
:1029900085F83C00BDE8F08101E00220FAE7D4E9C7
:1029A0000012E368286802F04FF92868816921F075
:1029B0000C01816128688169A26811430FE0D4E9A4
:1029C0000012E368286802F07DF92868816921F423
:1029D0004061816128688169A26841EA02218161C0
:1029E000D5E7D4E90027267B016A21F480710162D2
:1029F000C169036A21F00301394321F0F00731076F
:102A00004FF4007647EA116123F4007306EA0222CC
:102A10001A43C16102622868C16921F00C01C161D9
:102A20002868C169A2681143B0E710B5040003D05B
:102A300094F83D0010B107E0012010BD002084F89B
:102A40003C00204600F01EF8022084F83D00211DC5
:102A5000206801F0EFFF012084F8460084F83E0072
:102A600084F83F0084F8400084F8410084F8420074
:102A700084F8430084F8440084F8450084F83D005D
:102A8000002010BD7047000010B5044651B1042964
:102A90000DD0082910D094F8410094F84520012861
:102AA00011D10EE094F83E0094F84220F7E794F834
:102AB0003F0094F84320F2E794F8400094F8442053
:102AC000EDE7012A01D0012010BD022051B10429F7
:102AD00011D0082918D084F8410084F845000C2949
:102AE0001BD136E084F83E0084F842002068C268BA
:102AF00042F0020210E084F83F0084F843002068AE
:102B0000C26842F0040207E084F8400084F8440000
:102B10002068C26842F00802C2600122206801F009
:102B2000BFFF0E492068884208D0B0F1804F05D021
:102B30000B49884202D00B49884204D1816801F0D8
:102B40000701062903D0016841F00101016000205E
:102B500010BD2068C26842F01002DDE7002C014081
:102B6000000400400008004070B504460068016998
:102B70004FF00005C943890715D4C168C9438907C7
:102B800011D4E91E01610120207720688069800747
:102B9000204602D0FFF770FE04E000F0BFF82046A8
:102BA00000F04EF9257720680169C943490717D419
:102BB000C168C943490713D46FF0040101610220C1
:102BC00020772068806910F4407F204602D0FFF70C
:102BD00053FE04E000F0A2F8204600F031F925771A
:102BE00020680169C943090716D4C168C9430907A8
:102BF00012D46FF008010161042020772068C069B9
:102C00008007204602D0FFF737FE04E000F086F888
:102C1000204600F015F9257720680169C943C906E7
:102C200017D4C168C943C90613D46FF010010161FC
:102C3000082020772068C06910F4407F204602D029
:102C4000FFF71AFE04E000F069F8204600F0F8F8FB
:102C5000257720680169C943C90708D1C168C943FC
:102C6000C90704D1891E0161204600F039F92068A6
:102C70000169C943090609D4C168C943090605D4D5
:102C80006FF0800101612046FFF7B2FB2068016907
:102C9000C943490609D4C168C943490605D46FF040
:102CA00040010161204600F04AF920680169C943EA
:102CB00089060BD4C168C943890607D46FF0200187
:102CC00001612046BDE87040FFF793BB70BD000076
:102CD00000B585B000210091019102910391006837
:102CE0000B49884212D10B48816941F0040181618E
:102CF0008069694600F0040004904FF41060009071
:102D00000220019003900448FEF760FE05B000BD6C
:102D1000002C01400010024000080140704770B5CF
:102D2000044690F83C000D4601280AD0012084F8A2
:102D30003C0042B1042A18D0082A2AD00C2A4DD1CE
:102D400039E0022070BD206801F0CAFE2068816968
:102D500041F0080181612068816921F004018161ED
:102D6000206881692A69114311E0206801F0E0FEC2
:102D70002068816941F4006181612068816921F4E2
:102D800080618161206881692A6941EA022181614B
:102D900024E0206801F0F8FE2068C16941F00801D4
:102DA000C1612068C16921F00401C1612068C16965
:102DB0002A69114311E0206801F012FF2068C169FF
:102DC00041F40061C1612068C16921F48061C16181
:102DD0002068C1692A6941EA0221C161002084F8A2
:102DE0003C0070BD10B5040003D094F83D0010B154
:102DF00007E0012010BD002084F83C00204600F0D0
:102E00001EF8022084F83D00211D206801F012FE0A
:102E1000012084F8460084F83E0084F83F0084F8DE
:102E2000400084F8410084F8420084F8430084F8AC
:102E3000440084F8450084F83D00002010BD704730
:102E40007047000010B50446022249B104290ED093
:102E5000082913D094F84100012816D0012010BD94
:102E600094F83E000128F9D184F83E200FE094F850
:102E70003F000128F2D184F83F2008E094F8400098
:102E80000128EBD184F8402001E084F841200122A0
:102E9000206801F005FE0F492068884203D1426C8A
:102EA00042F4004242642068884208D0B0F1804F6A
:102EB00005D00949884202D00849884204D1816876
:102EC00001F00701062903D0016841F0010101600A
:102ED000002010BD002C014000040040000800400C
:102EE0000A4988420AD10A4801880A0606D44A06D5
:102EF00004D5CA43920602D0491C0180704741F0B4
:102F0000800101804FF6FF714180704788020020E8
:102F10004C0000200246002041B1042909D00829B4
:102F20000AD00C2901D11068006C70471068406B02
:102F300070471068806B70471068C06B70477047AF
:102F400070477047F8B5026804461068D168536945
:102F500010F00F0F4FF0000553D003F0010601F4FD
:102F6000907737435FD0C20705D0CA0503D5226CDE
:102F700042F001022264420705D5DA0703D0226C31
:102F800042F002022264820705D5DA0703D0226CE0
:102F900042F004022264020707D501F02002324306
:102FA00003D0226C42F008022264226C002A34D042
:102FB000800604D5880602D5204601F039FF206836
:102FC0004069216CC0F38010090700D430B320465B
:102FD00001F016FF2068416949061BD5416921F0BF
:102FE00040014161A06BA8B158494163A06BFEF755
:102FF000E1FB002811D0A06B416B01B0BDE8F040AF
:10300000084783060FD58B060DD52046BDE8F8404E
:1030100001F00EBF2046FFF794FFF8BD2046FFF7F2
:1030200090FF2564F8BD266B2023012E52D1C606E1
:1030300050D5CE064ED510685068009050694006B5
:103040002AD5A16B086840680004000CEAD0A68D60
:103050008642E7D9E0858869202818D0D06820F416
:103060008070D0602068416921F0010141612068D1
:10307000416921F04001416184F83E3025632068B8
:10308000C16821F01001C160A06BFEF76FFBA08D3D
:10309000E18D401A81B219E0A08DE18D401A81B214
:1030A000E08D0028BED00029BCD0D06820F49070FC
:1030B000D0602068426922F00102426184F83E300B
:1030C00025632068C26822F01002C2602046FFF724
:1030D00037FFF8BD05062BD50D0629D594F83D0020
:1030E0002128F6D1A068B0F5805F01D12069B0B188
:1030F000206A411C2162216800784860E08C401EF3
:103100000004000CE084E4D12068C16821F0800153
:10311000C1602068C16841F04001C160F8BD206A0B
:103120000088C0F308005060206A801C2062E5E738
:103130004006F3D54806F1D5D168204621F040017C
:10314000D16084F83D3000F0BBF9F8BDF14D0008C6
:1031500070B5040004D094F83D00002510B106E0DD
:10316000012070BD84F83C50204600F023F8242054
:1031700084F83D002068C16821F40051C1602046F8
:1031800001F0B2FE2068016921F4904101612068DC
:10319000416921F02A0141612068C16841F4005170
:1031A000C1602564202084F83D0084F83E000020A2
:1031B00070BD000070B586B00024009401940294A4
:1031C000039403682B482A4E022103220515B342BB
:1031D00021D1836943F480438361836903F480438D
:1031E0000493836943F0040383618069224E00F0F5
:1031F000040004900802CDE90001039269463046BC
:10320000FEF7E4FBCDE90054694630460294FEF730
:10321000DDFB06B070BD194EB342FAD1C36943F469
:103220008023C361C36903F480230493836943F05B
:10323000080383618069CDE9005100F00800CDE901
:1032400003200F4D69462846FEF7C0FBE814CDE980
:103250000004694628460294FEF7B8FB01220021CB
:103260002720FEF729FD2720FEF719FDD1E70000F2
:1032700000380140001002400008014000480040B2
:10328000000C014090F83E30202B0ED159B152B1C4
:1032900090F83C30012B08D0012380F83C3000230B
:1032A000036301F07DBE01207047022070470000DB
:1032B0002DE9F0470068714988426ED17048DFF807
:1032C000C091704F0078A9F103096F4AC9F808004E
:1032D0006E4B6F4D6F4E0121002489F804004FF0B2
:1032E000020C592816D0582817D00A281ADD5A2857
:1032F0002CD041283CD045282DD042282FD043281F
:103300002DD044282BD046282ED047282CD0482812
:103310002AD003E087F800C000E0397014701C70F8
:103320002C7034700A2829DA397078B101281FD03E
:10333000052810D002281DD003281BD0042819D03E
:1033400006282BD0072829D0082827D014701C70F5
:1033500003E0347012E0147019702C70F9E71470E7
:103360001C702C703170DDE714701C702970D8E768
:103370001170ECE714701C702C703170404A464B91
:10338000D21E4D4652787B280CD07D2810D02E7846
:10339000012E08D0022E0DD066E06CE014701C7077
:1033A0002970D6E729709854521C89F801205BE0F7
:1033B00085F800C0D878502805D0587823284BD0FD
:1033C000AA70994629E03548017045E06978081AE5
:1033D00005F08FFB02460B460020314904F05CFBF0
:1033E0000646A8780F468046484410F8010C30384D
:1033F00005F07FFB32463B4605F0E2FB06460F46F2
:10340000E86805F0EDFE32463B4605F0F3F805F0BE
:10341000BFF8E860A8F10100A870A8780428D5D208
:1034200099F801003038062816D2DFE800F00306CC
:10343000090C0F121B49E8680DE01B49E8680AE017
:103440001A49E86807E01A49E86804E01949E86899
:1034500001E01949E86808602C706C70AC7032218A
:103460000D48EC60FCF7AAFFBDE8F04701220449D3
:103470001248FFF707BFBDE8F08700000048004092
:103480007700002001000020200000202100002003
:103490002200002023000020E80700204400002034
:1034A00000002440080000200C0000201000002034
:1034B00014000020180000201C000020A40300209D
:1034C0007047FEE770B50D46044600F0C1F820468F
:1034D00000F08EF800F004F9284600F089F800F0BA
:1034E000FFF800F0B5F8641CE0B200F081F800F0DD
:1034F000F7F8002000F046F8044600F0D1F8204626
:1035000070BD000070B50D4C0025C4F8A0510C48EA
:10351000016821F0F0010160016841F030010160B3
:10352000C4F8A451012004F5D07402F0BFFA0120C0
:10353000206002F0BBFA256070BD000000802142CF
:10354000040C014070B50D4C0025C4F8A0510C4886
:10355000016821F0F0010160016841F03001016073
:103560000126C4F8A461304604F5D07402F09EFA36
:103570002660012002F09AFA256070BD0080214289
:10358000040C01402DE9F0478146174800240168EA
:1035900021F0F0010160016841F080010160134EEB
:1035A000254627464FF00108C6F8A071022002F018
:1035B0007DFAC6F8A0816006040ED6F8240108B191
:1035C000641CE4B2022002F071FA6D1CEDB2082D09
:1035D000EAD3B9F1000F02D0FFF794FF01E0FFF743
:1035E000B1FF2046BDE8F087040C01400080214275
:1035F0002DE9F04106461448016821F0F001016010
:10360000016841F030010160104C0027C4F8A0713E
:103610003D464FF00108F009C4F8A4017006060EFB
:10362000012002F043FAC4F8A081012002F03EFA22
:10363000C4F8A071012002F039FA6D1CEDB2082D1A
:10364000E9D3BDE8F0810000040C01400080214274
:1036500070B51148016821F0F0010160016841F086
:10366000300101600D4C0120C4F8A401D4F82411EC
:1036700049B1C4F8A00102F019FA0025C4F8A45118
:10368000D4F8240108B1002070BD012002F00EFA28
:10369000C4F8A051012070BD040C014000802142FB
:1036A0000D4810B5016821F0F0010160016841F09A
:1036B00030010160094C0020C4F8A001C4F8A40145
:1036C000012004F5D07402F0F1F90120206060605F
:1036D000BDE8104002F0EAB9040C0140008021422C
:1036E00070B513480024016821F0F0010160016801
:1036F00041F0800101600F4D0126C5F8A4613046FC
:1037000002F0D4F9C5F8A06107E0641CE4B2322CE1
:1037100003D9FFF7C5FF002070BD012002F0C6F9F4
:10372000D5F824010028F0D1C5F8A001012070BD12
:10373000040C01400080214210B51446FFF7C2FE80
:103740002070012010BDF8B515461C460E460746F0
:103750006A46FFF7F1FF01209DF80010A8400CB168
:10376000084301E021EA0000C2B28DF80020314692
:10377000384600F02BF8F8BD2DE9F84314461D46F5
:103780000F4680466A46089EFFF7D6FF00281BD0EA
:10379000611CFF20C4F1080200FA01F12A44521E04
:1037A000D0400143C5F108008640F2B2C4F10700E1
:1037B000C2409DF80000084010438DF80000C2B2DE
:1037C0003946404600F002F8BDE8F88307B502AB81
:1037D000012200F001F80EBD2DE9F0411E4615460C
:1037E000884607460024FFF733FF3846FFF700FFFF
:1037F000FFF776FF4046FFF7FBFEFFF771FF06E09D
:10380000305DFFF7F5FEFFF76BFF641CE4B2AC42DE
:10381000F6D3FFF745FF0120BDE8F08141060748D8
:10382000826942F0010282610548426822F0E0624A
:10383000426042680A434260704700000010024044
:10384000000001402DE9F04F04469148ABB011AFA4
:10385000B0E86810299287E868106CC80DAF87E857
:103860006C0050E91423CDE9272350E91223CDE958
:10387000252350F8588900F15C031FAF93E80C1022
:103880009346199350F8682B2A926CC887E86C000D
:1038900050E91820CDE923200020079008900490DB
:1038A000059006901B901C9009900A900B90039035
:1038B0000C901D901E901A90E246084605F090FC70
:1038C00005460E4684F0004005F08AFC2A46334641
:1038D00001F0AEFF04F05CFE6E4F15900DAC0222BD
:1038E000CDE9004707AE012311460296104603F0CA
:1038F000D7FE1BAA29A927A88DE8070001231A468D
:103900001946022003F0CCFE1B99079805F094FCA1
:1039100007F1080528601C99089805F08DFC68607F
:103920000DF10C0905F1280100940223CDE90119DC
:103930001A461946184603F0B3FE09A91FAACDF886
:103940000090CDE9012102231A461946184603F0DA
:10395000A7FE4146099805F06FFC4F4C5946206080
:103960000A9805F069FC606019990B9805F064FCF1
:10397000A06051460C9805F05FFCE0600DF1940AE0
:103980000223CDE900A40DF1740B1A46CDF808B05E
:103990001946012003F084FE0DF1680823A9CDF833
:1039A00000B0CDE90118012302221146184603F0A8
:1039B00077FE2A991A9805F03FFC01464FF07E5099
:1039C00005F0A2FC1A9023A8CDE9004002220123B1
:1039D00011460296104603F063FE05F1080B012321
:1039E0008DE840091A461946022003F059FECDF829
:1039F00000A0CDE90158012302221146184603F028
:103A00004FFE1A99159805F075FE1A90CDF800B082
:103A10000123CDE901861A461946022003F040FE33
:103A20000799286805F008FC38600899686805F06F
:103A300003FC7860CDF800B0CDE901A90223012292
:103A40001146184603F02CFE0399119805F052FE1A
:103A500003900499129805F04DFE0490059913986F
:103A600005F048FE05900699149805F043FE06906F
:103A700005F12800CDF800900223CDE901401A4657
:103A80001946184603F00CFE38682BB0BDE8F08FDD
:103A900018B00008C0010020540800202DE9F04FA4
:103AA00004469348ABB000F178030F4693E86810E2
:103AB00011A9299281E8681000F188050DF13408F8
:103AC0004ECD88E84E00D0E90812CDE92712D0E9A2
:103AD0000A12CDE92512B5E80E108846CDF858C077
:103AE000416892469B462A912ECD1FAE86E82E0055
:103AF000D0E90C10CDE92310002007900890049025
:103B0000059006901B901C9009900A900B900390D2
:103B10000C901D901E901A90384605F061FB0646E9
:103B20000D4684F0004005F05BFB32462B4601F069
:103B30007FFE04F02DFD6F4F15900DAC0222CDE9F4
:103B4000004707AE012311460296104603F0A8FD78
:103B50001BAA29A927A88DE8070001231A461946A0
:103B6000022003F09DFD1B99079805F065FB07F106
:103B7000080528601C99089805F05EFB68600DF147
:103B80000C0905F1200000940223CDE901091A4631
:103B90001946184603F084FD09A91FAACDF8009024
:103BA000CDE9012102231A461946184603F078FD93
:103BB0004146099805F040FB4F4C514620600A9859
:103BC00005F03AFB606059460B9805F035FBA060A4
:103BD00016990C9805F030FBE0600DF1940A022371
:103BE000CDE900A40DF1740B1A46CDF808B01946C2
:103BF000012003F055FD0DF1680823A9CDF800B0B0
:103C0000CDE90118012302221146184603F048FDB0
:103C10002A991A9805F010FB01464FF07E5005F0E6
:103C200073FB1A9023A8CDE900400222012311461C
:103C30000296104603F034FD05F1080B01238DE8D0
:103C400040091A461946022003F02AFDCDF800A0CB
:103C5000CDE90158012302221146184603F020FD48
:103C60001A99159805F046FD1A90CDF800B0012379
:103C7000CDE901861A461946022003F011FD079985
:103C8000286805F0D9FA38600899686805F0D4FA10
:103C90007860CDF800B0CDE901A9022301221146D8
:103CA000184603F0FDFC0399119805F023FD0390DD
:103CB0000499129805F01EFD04900599139805F0DB
:103CC00019FD05900699149805F014FD069005F16C
:103CD0002001CDF800900223CDE901411A46194692
:103CE000184603F0DDFC38682BB0BDE8F08F00000B
:103CF000E0AF0008D80100206408002010B5322091
:103D000001F064FE012804D10948017859B100216D
:103D1000017000F029F8012804D10648017821B18A
:103D20000021017010BD0121F2E70121F9E7000037
:103D3000020000200300002010B5094A002360B1F2
:103D400008490C68641C0C60844205D1D2F89001CB
:103D5000C043C2F890010B6010BDC2F8903110BD95
:103D600000002142700000200C48002142891AB94D
:103D70000B4BD3F814310BB101810AE003895B1CB2
:103D80009BB20381C82B04D90122428101811046D4
:103D90007047012A00D14181002070476400002053
:103DA0000000214210B5022000F011F8032000F0BD
:103DB00020F8002000F014F8002000F02FF8002078
:103DC00000F026F8BDE81040002000F01BB808B550
:103DD0000323009002226B21D020FFF7CDFC08BD09
:103DE00008B50223009004221C21D020FFF7C4FC58
:103DF00008BD08B50223009004221B21D020FFF744
:103E0000BBFC08BD034601223721D020FFF79BBC35
:103E1000034605226A21D020FFF795BC03460622FF
:103E20006B21D020FFF78FBC3EB5002112480091D6
:103E30000191104A029102608160017301750124B1
:103E40004FF460220461C2614160FDF7D7FA08B106
:103E5000FCF7EAFF0820CDE900040720029069463C
:103E60000548FDF749FA08B1FCF7DEFF0248FDF707
:103E7000D7F93EBD00240140100200202DE9F04397
:103E800085B000253E48009501950295039581690E
:103E900041F020018161816901F020010491816973
:103EA00041F004018161816901F00401049181699B
:103EB00041F0080181618069DFF8C88000F00800E6
:103EC0000490012210214046FDF770FEDFF8B89003
:103ED00000224FF238014846FDF768FE4FF40047D4
:103EE000002239464046FDF761FE01224FF4407141
:103EF0004846FDF75BFE1020012403268DE8710083
:103F000069464046FDF762FD2020CDE9000569467F
:103F100002944046FDF75AFD08208DE8710069467D
:103F20004046FDF753FD4FF473408DE8710069463C
:103F30004846FDF74BFD200300901448CDE90104ED
:103F400069464046FDF742FD0097CDE901456946C7
:103F500040460394FDF73AFD38208DE8310069466C
:103F600048460394FDF732FD012202212820FDF787
:103F7000A3FE2820FDF782FE05B0BDE8F083000017
:103F80000010024000080140000C01400000211018
:103F900010B596B000240F941094119412941394B9
:103FA0001C2168461494FCF72BFA202107A8FCF783
:103FB00027FA30482E49C0E9001441F61F41C0E9F4
:103FC000024180210461C0E90541FEF771FA08B1A0
:103FD000FCF72AFF4FF480500F900FA92548FEF7F9
:103FE000FFFA08B1FCF720FF2248FEF7FBFE08B1FC
:103FF000FCF71AFF139413A91E481494FEF724FA31
:1040000008B1FCF711FF6020CDE90004029403948D
:10401000049405940022694616480694FEF77FFE34
:1040200008B1FCF701FF0C2269461248FEF777FE43
:1040300008B1FCF7F9FE0794089409944FF4005076
:104040000A94CDE90B4007A90A480E94FEF7D2F96D
:1040500008B1FCF7E9FE00210648FEF7F3FE0C214B
:104060000448FEF7EFFE0348FEF732FE16B010BD1F
:10407000002C01404002002010B58AB000242548E1
:104080000494059406940794089409940094019468
:1040900002944FF08041039401604721C0E901146C
:1040A0004FF6FF71C0E9031480218161FEF700FA29
:1040B00008B1FCF7B9FE4FF48050049004A91548EC
:1040C000FEF78EFA08B1FCF7AFFE1248FEF7ADFC22
:1040D00008B1FCF7A9FE089408A90E480994FEF758
:1040E000B3F908B1FCF7A0FE0120CDE9004002942D
:1040F0000422694607480394FEF710FC08B1FCF758
:1041000093FE04210348FEF7BFFC0248FEF73CFA89
:104110000AB010BD8802002010B58CB0242168467A
:10412000FCF76EF900241848099416490A94C0E96E
:1041300000144FF6FF71C0E902410461846103205D
:10414000CDE900040120CDE902040A210491CDE962
:104150000540CDE9074169460B48FEF7ACFA08B1C6
:10416000FCF762FE099409A907480A94FEF76CF966
:1041700008B1FCF759FE3C210348FEF735FB0CB0B3
:1041800010BD000000040040D002002010B58CB02B
:1041900024216846FCF734F900241848099416498C
:1041A0000A94C0E900144FF6FF71C0E902410461AE
:1041B00084610320CDE900040120CDE902040A2135
:1041C0000491CDE90540CDE9074169460B48FEF76A
:1041D00072FA08B1FCF728FE099409A907480A9465
:1041E000FEF732F908B1FCF71FFE3C210348FEF749
:1041F000FBFA0CB010BD00000008004018030020BE
:104200000C4810B50A4901604FF4E13141600021CA
:1042100081600C22C160C0E904128161C161FEF7B6
:1042200097FF002803D0BDE81040FCF7FDBD10BD8E
:1042300000380140600300200E4810B50C490160B1
:104240004FF416514160002181600C22C160C0E929
:1042500004128161C161FEF77BFF08B1FCF7E4FD48
:10426000BDE81040012204490248FFF70BB80000E6
:1042700000480040A403002077000020FEE7FEE78E
:1042800010B40021084B0A465FF0000003EBC004A5
:10429000401CC0B262548028F8D3491CC9B2082916
:1042A000F2D310BC00F096B8E803002010B57F28C8
:1042B00016D83F2914D80723A3EBD10301F0070137
:1042C000C1F107040121A140064CDBB204EBC000A0
:1042D000002AC25CC9B201D00A4300E08A43C2543A
:1042E00010BD0000E803002010B5394C0020C4F8D0
:1042F0008C01642004F5C67401F0BEFB012020602F
:104300000021AE2000F030F90021D52000F02CF97A
:104310000021502000F028F90021A82000F024F905
:1043200000213F2000F020F90021D32000F01CF9EB
:104330000021084600F018F90021402000F014F98F
:1043400000218D2000F010F90021142000F00CF95C
:104350000021202000F008F90021022000F004F9DB
:104360000021A12000F000F90021C02000F0FCF89D
:104370000021DA2000F0F8F80021122000F0F4F813
:104380000021812000F0F0F80021EF2000F0ECF88F
:104390000021D92000F0E8F80021F12000F0E4F835
:1043A0000021DB2000F0E0F80021302000F0DCF8F4
:1043B0000021A42000F0D8F80021A62000F0D4F8B5
:1043C0000021AF2000F0D0F8BDE81040FFF758BF43
:1043D0000080214270B5114E002400BF04F1B000EE
:1043E000C0B2002100F0C0F80021084600F0BCF87F
:1043F0000021102000F0B8F85FF0000506EBC500C2
:104400000121005D00F0B0F86D1CEDB2802DF5D3F8
:10441000641CE4B2082CE1D370BD0000E803002066
:104420002DE9FF4F203A1F460C46894602F0FF0A4D
:104430000025DDF834B032E00C2F09D01A4901EB29
:104440000A104FF00008465D300607D55A4609E0CD
:1044500016490AEB4A0001EB8000F2E7BBF1000FBE
:1044600012D0002221460098FFF720FF7006641C3E
:10447000060EE4B2A4EB0900B84207D100984C46FE
:10448000401CC0B2009008E00122EBE708F10100F7
:1044900000F0FF08B8F1080FD6D36D1CEDB2BD4295
:1044A000CAD3BDE8FF8F0000A69D0008329900081E
:1044B0002DE9FF4F81B00026DDF838A01D46934658
:1044C000814634464FF001084FEA5A0727E0281B7F
:1044D000401EC1B20A2003F032F9BBFBF0F00A2102
:1044E000B0FBF1F201FB120026B9691E8C4201DA21
:1044F00048B101263030C2B207FB0490C0B2534627
:10450000CDF8008006E007FB0490C0B2534620229D
:10451000CDF800800299FFF783FF641CE4B2AC423F
:10452000D5D305B0BDE8F08FF8B516460D46044664
:10453000012714E07A2C02D900241035EDB23A2D6F
:1045400003D900242546FFF79BFE009732780C2301
:1045500029462046FFF764FF0834E4B2761C307821
:104560000028E7D1F8BD000070B50F4C00250122EE
:1045700011B1C4F8BC2101E0C4F8BC510B4B0021BF
:10458000C3F89451060602D5C3F8902101E0C3F8A0
:104590009051C3F894214006491C000EC9B2082965
:1045A000EED3C4F8BC2170BD00002142008021423E
:1045B000884200DD0846904200DA10467047704796
:1045C000F0B5234C064600256088A0B9104603F0DC
:1045D000B1F80746184603F0ADF838441E2809DA4A
:1045E000A088401C80B2A0800A2804D901206080E5
:1045F000A58003E0A5806088012813D1E088401CD5
:1046000080B2E080C82801D9E580658011488642E3
:1046100008DD1148814205D21048814202DA0220A9
:10462000608002E0608802280FD12089401C80B29F
:104630002081642801D925816580D01803F07AF89B
:10464000462802DD65800120F0BD0020F0BD00009D
:10465000880000200020CB460000A0C10000A0413F
:10466000144B10B51B781BB3134B5C8914B1012C90
:104670000AD01DE0114CA0421AD2114CA04217DA08
:10468000B1B9AAB9012058819889401C84B2002090
:104690009C81322C01D998815881032908DD032A95
:1046A00006DD282904DA282A02DA5881012010BD03
:1046B000002010BD0200002088000020000020C162
:1046C000000020412DE9F04F89B0684C07A8CDE9E2
:1046D000004004F1260106AB02AA881F01F050FB3E
:1046E0002088C0057ED5029804F00CFF6FF01D06EF
:1046F000314605F0D4F880466060039804F002FF6C
:10470000314605F0CCF80746A060049804F0FAFEA4
:10471000314605F0C4F80546E060059804F0F2FE65
:10472000314605F0BCF8064620610121404605F0FF
:10473000B6F8294604F012FF05464FF040484146BE
:10474000384604F00BFF314604F008FF294604F018
:1047500073FD04F045FD00F023FEDFF814A14FF0D7
:1047600066394A46534604F02BFA03F011FF6061A4
:10477000E0680121054605F092F88346294604F0D9
:10478000EDFE0546A0684146064604F0E7FE3146C8
:1047900004F0E4FE294604F0ADFF4FF07E5104F032
:1047A0004BFD04F01DFD07460D460121606805F034
:1047B00076F8314604F0D2FE06465846216904F0E8
:1047C000CDFE314604F038FD04F00AFD3A462B4692
:1047D00001F02EF84A46534604F0F2F903F0D8FEF1
:1047E000A06100E03FE021690191084604F0B6FEB7
:1047F000E16807460846009104F0B0FEA16806464D
:104800008B46584604F0AAFE616805468846404635
:1048100004F0A4FE294604F00FFD314604F06AFFBF
:10482000394604F067FF04F0DBFC06460D464046BF
:10483000019904F093FE07465846009904F08EFE55
:10484000394604F0F9FC012105F029F804F0C8FC10
:1048500032462B4600F0ECFF4A46534604F0B0F9CE
:1048600003F096FEE06109B0BDE8F08F7C01002006
:1048700066A64C4010B50E4C0120C4F88C010F20E8
:1048800004F5C67401F012F900222260094801887B
:104890000B060CD54488890604EB9121AA246143B8
:1048A0004FF47A74B1FBF4F1034B1960028010BD30
:1048B000000021424C00002040000020002102287E
:1048C00005D0032809D0042809D0002070474FF0F4
:1048D0008042506A516200B27047034A00E0034AC6
:1048E0001068116000B270472404004024080040A2
:1048F00010B54221D020FEF7E5FD04464121D0202D
:10490000FEF7E0FD04EB002004F014FEB0F18E4F42
:1049100003DD4FF08F4104F0EDFE094904F0F4FC93
:1049200004F05EFC074A084B03F064FE0022074BCC
:1049300004F046F903F02CFEBDE8104004F0A6BDDB
:104940000000AA43A4703D0AD7434240000024401F
:104950007047000030B500230124114A002804DD0F
:10496000C2F8B841C2F8BC3103E0C2F8B831C2F8AD
:10497000BC4102F0DFFE0B4D2860002904DDC2F8C7
:10498000B441C2F8B03103E0C2F8B431C2F8B0416A
:10499000084602F0CFFE03490C31086030BD00002C
:1049A00000802142342C0140FDF70CB930B593B0A2
:1049B00028216846FBF724FD14210AA8FBF720FDF7
:1049C000002501200F9510951195010412958DE891
:1049D000230004904FF4E010CDE90810022407945E
:1049E0006846FDF761FB08B172B6FEE70AA90F2021
:1049F00081E831004FF48060CDE90D0502210AA85D
:104A0000FDF766FA08B172B6FEE74FF40040119068
:104A10000F940FA8FDF7E6F9002801D072B6FEE763
:104A200013B030BD704700000148FEF79DB800008C
:104A300088020020F0B50268164B174C174D4FF056
:104A40008047984205D0B84203D0A04201D0A84286
:104A500003D122F070064A683243984205D0B8422A
:104A600003D0A04201D0A84203D122F44074CA6806
:104A700022434C6922F08002224302608A68C262AB
:104A80000A688262984201D109690163012141618A
:104A9000F0BD0000002C0140000400400008004070
:104AA00010B501F01F030121046A99408C43046290
:104AB000016A9A401143016210BD10B5846842EA50
:104AC000032224F47F440A432243826010BD82689B
:104AD00022F070020A4342F0070181607047000033
:104AE00030B5026A22F001020262026A43688469F8
:104AF00024F073050C682C4322F002058A682A43CF
:104B00000A4DA8420BD122F00805CA6823F440736D
:104B10002A434D6922F004021D438B692B434360F5
:104B2000846149684163026230BD0000002C01408D
:104B300030B5026A22F010020262026A4368846998
:104B40000D6824F4E64444EA05248D6822F020022E
:104B500042EA05120B4DA8420ED1CD6822F0800228
:104B600042EA05124D6923F4406343EA85038D69E7
:104B700022F0400243EA850343608461496881630F
:104B8000026230BD002C014030B5026A22F480720E
:104B90000262036A4268C46923F4007324F0730557
:104BA0000C682C438D6843EA05230C4DA8420ED1B6
:104BB000CD6823F4006343EA05234D6922F4405293
:104BC00042EA05128D6923F4806342EA05124260CD
:104BD000C4614968C163036230BD0000002C01401C
:104BE00030B5026A22F480520262046A4268C369E4
:104BF0000D6823F4E64343EA05238D6824F400544A
:104C000044EA0534064DA84204D14D6922F480429D
:104C100042EA85124260C36149680164046230BDA2
:104C2000002C014010B5036A046A24F001040462F8
:104C3000846924F0F00444EA021423F00A020A43CF
:104C40008461026210BD000070B5046A24F00104A2
:104C500004628469056A0F4EB04208D0B0F1804FFB
:104C600005D00D4EB04202D00C4EB04203D124F01C
:104C70000304144301E044F001041A0724F0F00493
:104C800044EA126225F00A0301F00A011943826125
:104C9000016270BD002C014000040040000800408B
:104CA00010B5036A23F0100303628369046A23F4D6
:104CB000704343EA023224F0A00343EA0111826107
:104CC000016210BD30B5046A24F0100404628469E6
:104CD000056A24F4407444EA022222F470444FF638
:104CE000FF7202EA03322243A02425F0A00304EA63
:104CF000011119438261016230BD00002DE9F041CC
:104D000007462048224C06681F48E56B01781F487B
:104D10000129007825D01F490978012927D00020D2
:104D200060631D480078012828D01C4800780128BD
:104D300024D00021384604F011FC194F394604F004
:104D4000E3FA05463146606B04F008FC394604F08E
:104D5000DBFA294604F070FAA063BDE8F04104F0E4
:104D600095BB04F0E7FB014685F0004003E004F04A
:104D7000E1FB0146284604F0C7FAD1E7094801687B
:104D8000D8E70000180000202200002001000020C9
:104D900088000020230000202000002021000020A7
:104DA0000000C8421C0000200D4A904209D80D4A5C
:104DB000904206DC0C480078012802D0B1F57A7FD9
:104DC0000BDA0A4A01200021C2F8B811C2F8BC115E
:104DD000C2F8B411C2F8B01170470020704700004B
:104DE000000020C20000204202000020008021427A
:104DF00010B5406A0021C185C184FEF7A2F810BD3C
:104E00000168CA6822F49072CA6001684A6922F097
:104E100001024A61016B012904D10168CA6822F0CC
:104E20001002CA60202180F83E1000210163704703
:104E300008B590F83E10222901D0022008BD8268F2
:104E40004FF480539A4201D1016921B1816A9A429B
:104E50001BD04AB10AE00268816A5268C2F30802B4
:104E60000A80816A891C08E0026972B1026852688E
:104E700002F07F020A70816A491C8162C18D491E5D
:104E80000904090CC18503D019E002685268F1E7F2
:104E90000168CA6822F02002CA600168CA6822F468
:104EA0008072CA6001684A6922F001024A612021C9
:104EB00080F83E10016B012903D0FEF7F9F90020BC
:104EC00008BD002101630168CA6822F01002CA60AF
:104ED00001680A68D20602D50A6849680091818D86
:104EE000FEF72EF8EBE7000070B504460068016994
:104EF000E26821F44051114301612169A06808432F
:104F0000616908432168CA6841F20C639A4302430D
:104F1000CA6020684169A26921F44071114341616E
:104F20001E492068884202D1FDF778F801E0FDF7BC
:104F300065F800EBC00101EB00126068642180009D
:104F4000B2FBF0F3B3FBF1F36FF018067343B2FB5F
:104F5000F0F5B2FBF0F605EB8305322303EB051504
:104F6000B5FBF1F5B6FBF1F605F0F00505EB06151E
:104F7000B2FBF0F6B2FBF0F0B0FBF1F06FF018020C
:104F8000504306EB800003EB0010B0FBF1F021680A
:104F900000F00F002844886070BD00000038014018
:104FA00081628285C28500210164222280F83E2030
:104FB00080F83C100168CA6842F48072CA600168D7
:104FC0004A6942F001024A610068C16841F020016B
:104FD000C1600020704700000148FDF7B3BF00002A
:104FE000A4030020FEE700002DE9F35F6548674C4D
:104FF00090F800806448B8F1010F90F800901DD03F
:10500000B9F1010F1AD06248206362484FF0000ADC
:105010000178614801290078834611D05F48007803
:10502000012812D0C4F828A05D48B8F1010F056826
:105030005C4807785C48067812D032E05B48E3E7CA
:1050400004F078FA0146206B06E0584604F072FA44
:105050000146206B80F0004004F056F9A062E3E7BF
:10506000A5F1C900B0F5957F0BD8012F09D0012E0D
:1050700007D0584604F05EFA0146206B04F044F96C
:10508000A062C82D0DD2012F0BD0012E09D0584699
:1050900004F050FA0146206B80F0004004F034F92F
:1050A000A062B9F1010F10D1B5F5E17F0DD2012F4A
:1050B0000BD0012E09D0584604F03CFA0146206B73
:1050C00080F0004004F020F9A062DDE9000108440E
:1050D000404204F017FA05462062606A04F080F846
:1050E000334A344B03F06CFD03F052FA074628466E
:1050F00004F076F8304A314B03F062FD05460E4667
:10510000384604F06DF82A46334603F073FA03F08C
:105110003FFA054601466062E06A04F08DF8A16A34
:1051200004F08AF82649E062884202DC2549884278
:1051300000D9E16224480168E06A04F00FFA2349CB
:1051400004F0E2F8064622480168284604F006FA10
:10515000204904F0D9F8314604F0CCFAE0611E4849
:1051600001681E480068FFF71FFE012803D01C4895
:105170000078012801D1C4F82CA0E069BDE8FC5FEB
:1051800004F084B9060000200700002088000020F9
:1051900000004842200000200100002021000020E3
:1051A0004000002022000020230000200000F041E9
:1051B00085EB51B81E85EB3FEC51B81E85EBC13F26
:1051C00000401C4600401CC6140000200000C842DD
:1051D000100000200000C8C2300000203400002071
:1051E00002000020490050EAC12018BF04204A0DE7
:1051F00018BF40F0010040F2FF72B2EB515F08BFF0
:1052000040F00200012808BF052070470907090E79
:10521000002804DB00F1E02080F80014704700F063
:105220000F0000F1E02080F8141D70472DE9F041D7
:105230004F1E00EBC7010446D1E9000115461E468A
:1052400037F006020DD02A46334603F0B9FC7F1E24
:1052500004EBC703D3E9002303F0CCF937F00602CF
:10526000F1D1022F25D0042F13D0062F18BFBDE88F
:10527000F0812A46334603F0A3FCD4E90A2303F065
:10528000B9F92A46334603F09BFCD4E9082303F01E
:10529000B1F92A46334603F093FCD4E9062303F020
:1052A000A9F92A46334603F08BFCD4E9042303F022
:1052B000A1F92A46334603F083FCD4E9022303F024
:1052C00099F92A46334603F07BFCD4E90023BDE874
:1052D000F04103F08FB90000002213461046014947
:1052E00003F044BA0000F03F012204F0AABA03F030
:1052F00081B9002213461046114603F037BA40F236
:10530000013200204FF0E04104F09BBA024A002035
:10531000110704F096BA000001FDFFFF704700007E
:105320002DE9FE4F07460E460025684601F09CF821
:1053300000246FF00F0AE8464FF0010957F82400E7
:1053400056F82410401A00D5404204F0DBF85146CC
:1053500004F0A5FA58F8241011F0FF4F0BD003F019
:10536000D3FF4FF07E5104F0C5F90A4920F0004008
:10537000884205DC07E0084908440849884202D30E
:1053800009FA04F00543641C032CD7DB2846BDE86A
:10539000FE8F0000295C0F3E666666C19A99D900AF
:1053A0002DE9F04D8D4F21F0004A86B005460C46A0
:1053B000BA452ADBAAEB070028430AD08848824571
:1053C00001DC1AD1CDB106B02846BDE8F04DFFF79B
:1053D0008BBF844A844B284603F0F2FB07460E46F7
:1053E000824A834B2846214603F0EAFB06B03A4640
:1053F0003346BDE8F04D03F0FDB80120FBF7A7F8F8
:1054000006B0BDE8F04DFFF774BF7A48824542DA36
:10541000BAF1795F0BDA2846FFF7E4FE042808BFEB
:10542000FFF774FF284606B02146BDE8F08D2A46F6
:105430000B46104603F0C4FB834602466E480E46F8
:105440000B4606217844FFF7F1FE5A46334603F037
:10545000B7FB804669488A465A4633460421784459
:10546000FFF7E4FE5A46334603F0AAFB00223B4610
:1054700003F0C0F802460B464046514603F076F969
:105480002A46234603F09CFB06B02A462346BDE885
:10549000F04D03F0AFB8284624F0004100223D460D
:1054A0003B4603F0C1FC4FF0FF3204F0CAF9064658
:1054B000024653480F460B4606217844FFF7B6FED6
:1054C00032463B4603F07CFBCDE900014D483246B5
:1054D0003B4604217844FFF7A9FE32463B4603F0E1
:1054E0006FFB00222B4603F085F88346029130467D
:1054F000394603F027F8804643480D46504517DCEF
:10550000DDE900015A46029B03F030F942462B4682
:1055100003F056FB42462B4603F06CF8012204F0E0
:1055200090F9304A304B03F071FD304A304B4CE07B
:105530004FF0000A52460B46404603F05BF8CDE9B7
:10554000031052462B461046194603F039FB3246EB
:105550003B4603F069FCDDE9033203F007F9064638
:105560000F46DDE900015A46029B03F0FFF883462F
:10557000009101223046394604F063F9194A1A4B6A
:1055800003F052FC06460F4601224046294604F02D
:1055900058F95A46009B03F013FB32463B4603F092
:1055A00035FD06460F4601225046294604F049F9CA
:1055B0000E4DDFF858802A46434603F035FC32464C
:1055C0003B4603F031FC2A46434603F02DFC002CF9
:1055D000D8BF81F0004106B0BDE8F08D0000F03F7B
:1055E0000000F07F075C143326A6913C182D44542C
:1055F000FB21F93F0000E03F505C0000665C0000CA
:10560000DA5B0000F05B00003333EF3FFB21E93F42
:105610002DE9F84F04460D4621F0004000917349F2
:10562000814211DC7249884201DC06D12CB120464E
:105630002946BDE8F84FFFF757BE6E48002DCCBF96
:105640006D496E49BDE8F88F6D49814211DD6D49A4
:105650008142D8BF4FF0FF366DDD20462946FFF767
:10566000C1FD042808BFFFF751FE20462946BDE8CA
:10567000F88F6549654F25F00045814233DD644967
:10568000814219DD002632464FF0804320462946EC
:1056900002F0B0FF80468A4601222046294604F0E7
:1056A000D0F800223B4603F0B1FC4246534603F0DB
:1056B0005DF804460D463EE001260022BA463B4610
:1056C0002046294602F096FF80460F4600225346A8
:1056D0002046294603F09AFC42463B4603F046F832
:1056E00004460D4627E04B4981421BDDDFF828A127
:1056F0000226002253462046294603F061FA002282
:105700003B4602F077FF80460F4600225346204674
:10571000294603F07BFC42463B4603F027F804464B
:105720000D4608E0032622462B4600203B4903F0A5
:105730001DF804460D4622462B461046194603F036
:105740003FFA8B46824602460B4603F039FA07467B
:105750000246334888460B4606217844FFF766FD2B
:1057600052465B4603F02CFA82462E488B463A4658
:10577000434605217844FFF759FD3A46434603F076
:105780001FFA02460B46002E504659460CDA02F02C
:1057900031FF22462B4603F013FA01B022462B4676
:1057A000BDE8F04F03F040BB02F024FF22462B4639
:1057B00003F006FA1C4A7A4402EBC603D3E900233D
:1057C00003F024FC22462B4603F020FC174A7A44BF
:1057D00002EBC603D3E9002303F026FB009A002A5C
:1057E000B8BF81F00041BDE8F88F00000000104410
:1057F0000000F07F182D4454FB21F93FFB21F9BF35
:105800000000DC3F0000203E0000F33F0000F03FBE
:105810000000E63F008003400000F83F0000F0BFBA
:105820007A5A0000385A0000D65900009E590000EC
:105830002DE9F04D9446CCF1000423F000464CEAEB
:105840000404594F46EAD4749A46884621F000422F
:10585000BC4206D8454240EA050442EAD474BC4240
:1058600004D9BDE8F04D6246FFF741BDAAF14055AD
:10587000A5F17F6555EA0C040BD0022404EAAA7452
:105880004A4DDFF82CE144EAD87452EA000B04D008
:105890000CE0BDE8F04DFFF7BBBE002C14BF012C9F
:1058A000BDE8F08D022C30D0032C32D056EA0C0B20
:1058B0000AD0BE4220D1BA4209D126F0804622F059
:1058C00080423346114617E000291ADB25E0DFF855
:1058D000E4B0FB44002C04BFDBE90001BDE8F08D1F
:1058E000012C02BFDBE9000181F00041BDE8F08D31
:1058F000022C0AD0032C0CD0BA4212D1B8F1000FFE
:105900000BDA2A482C49BDE8F08D28462B49BDE822
:10591000F08D28467146BDE8F08D24482849BDE841
:10592000F08D921B12153C2AC4BF204F244E10DC70
:10593000BAF1000FBEBF12F13C0F00273E4608DB54
:10594000624602F013FF21F00041FFF761FE0746B7
:105950000E4694B1012C08BF86F000460DD0194ABE
:10596000194B022C3846314615D003F04FFB2A461E
:10597000BDE8F04D114B03F049BB002213463846F9
:10598000314603F04BF804BF0220FAF7E0FD384639
:105990003146BDE8F08D03F039FB2A46BDE8F04DF5
:1059A000064B03F041BA00000000F07F182D44546C
:1059B000FB2109C032590000FB21F9BFFB2109403E
:1059C000FB21F93F075C143326A6A13C30B5204BE0
:1059D000D3F814411F4900222CB1CA80D3F81451C6
:1059E000012425B106E0CC88641CCC80F6E70D7854
:1059F00005B90C704D784DB90D78012D03D18D7816
:105A00006D1C8D704C708C78022C04D0D3F814313E
:105A1000012B04D005E08A708A80022030BD0A7014
:105A20004A708B78012B11D18B885B1C9BB28B80C9
:105A3000834206D9CB88834203D28A708A800120B0
:105A400030BDCB88834201D98A708A80002030BD66
:105A500000002142640000204FF0E020016921F0A5
:105A60000401016103480921017042F2283141809B
:105A700070470000840000200B49498848434FF0DC
:105A8000E021486100228A61086940F00100086154
:105A90000869C30701D0C003FAD5086920F00100E6
:105AA00008618A6170470000840000200B49097872
:105AB00048434FF0E021486100228A61086940F0C4
:105AC000010008610869C30701D0C003FAD508695D
:105AD00020F0010008618A61704700008400002006
