:020000040800F2
:10000000101F0020D1010008774C00083F3B00087A
:10001000754C0008990900083D5B000800000000CD
:10002000000000000000000000000000695400080B
:10003000390F0008000000001B500008E9540008B8
:10004000EB010008EB010008EB010008EB010008E0
:10005000EB010008EB010008EB010008EB010008D0
:10006000EB010008EB010008EB010008EB010008C0
:10007000EB010008EB010008EB010008EB010008B0
:10008000EB010008EB010008EB010008EB010008A0
:10009000EB010008EB010008EB010008EB01000890
:1000A000EB010008EB010008EB010008EB01000880
:1000B00069550008EB010008EB010008EB0100089E
:1000C000EB010008EB010008EB010008EB01000860
:1000D000EB010008EB010008255B0008315B00081C
:1000E000A1100008EB010008EB01000800F002F885
:1000F00000F05FF80AA090E8000C82448344AAF163
:100100000107DA4501D100F054F8AFF2090EBAE860
:100110000F0013F0010F18BFFB1A43F0010318473B
:1001200018C2000038C200000A444FF0000C10F85A
:10013000013B13F0070408BF10F8014B1D1108BF65
:1001400010F8015B641E05D010F8016B641E01F805
:10015000016BF9D113F0080F1EBF10F8014BAD1C55
:100160000C1B09D16D1E58BF01F801CBFAD505E073
:1001700014F8016B01F8016B6D1EF9D59142D6D3CD
:10018000704700000023002400250026103A28BFF5
:1001900078C1FBD8520728BF30C148BF0B607047F9
:1001A000642900F09B80002070471FB51FBD10B56B
:1001B00010BD00F061FA1146FFF7F7FF07F0C6FA2D
:1001C00000F07FFA03B4FFF7F2FF03BC05F044FE32
:1001D0000948804709480047FEE7FEE7FEE7FEE7DB
:1001E000FEE7FEE7FEE7FEE7FEE7FEE70448054917
:1001F000054A064B7047000065550008ED000008F1
:1002000010190020101F0020101B0020101B0020C0
:10021000704710B54C1084EA530404D54042C1F134
:10022000000138BF491E1B4204D55242C3F10003EE
:1002300038BF5B1E00F00FF914F0804F04D040422D
:10024000C1F1000138BF491E14F0004F04D05242E2
:10025000C3F1000338BF5B1E10BD00000FB404499A
:1002600010B503AA029800F0D1F910BC5DF814FB98
:10027000680000202DE9F0410E460446002020626F
:100280002046E168884730B3252805D0D4E901210C
:100290009047206A401CF2E7E16820460027884723
:1002A000050018D0A5F14100192802D820354FF4D7
:1002B00000673246294620462760FFF771FF40B1AC
:1002C000012804D0F61D26F007060836D8E7361DAB
:1002D000D6E72846DAE7206ABDE8F0812DE9F0414B
:1002E0000646002410687529314616A510D0AFF3D4
:1002F0000080002802DA404213A507E031688A072F
:1003000001D512A502E0490704D511A5012401E099
:10031000AFF3008000210A2206F1240709E0B0FBB8
:10032000F2FCB0FBF2F302FB1C00303078541846AC
:10033000491C0028F3D123462A463046BDE8F04147
:1003400000F00BB9000000002D0000002B000000A1
:100350002000000040EA010310B59B070FD1042ADA
:100360000DD310C808C9121F9C42F8D020BA19BA80
:10037000884201D9012010BD4FF0FF3010BD1AB1E5
:10038000D30703D0521C07E0002010BD10F8013B3A
:1003900011F8014B1B1B07D110F8013B11F8014B61
:1003A0001B1B01D1921EF1D1184610BD02F0FF03B4
:1003B00043EA032242EA024200F002B84FF0000290
:1003C0000429C0F0128010F0030C00F01B80CCF167
:1003D000040CBCF1020F18BF00F8012BA8BF20F8D5
:1003E000022BA1EB0C0100F00DB85FEAC17C24BF29
:1003F00000F8012B00F8012B48BF00F8012B7047D3
:100400004FF0000200B5134694469646203922BFAD
:10041000A0E80C50A0E80C50B1F12001BFF4F7AFF8
:10042000090728BFA0E80C5048BF0CC05DF804EBDA
:10043000890028BF40F8042B08BF704748BF20F848
:10044000022B11F0804F18BF00F8012B7047704746
:1004500070477047704753EA020C00F069802DE93D
:10046000F04B4FF00006002B1FBFB3FA83F503FAE1
:1004700005F424FA05F65E4012BF1643B2FA82F57F
:1004800002FA05F4C5F120051EBF22FA05FC44EA74
:100490000C04203556EA044C4FEA144418BF641C7F
:1004A0004FF000084FF00009904271EB030C39D374
:1004B000002919BFB1FA81F701FA07F6B0FA80F7FF
:1004C00000FA07F6C7F120071EBF20FA07FC46EA2C
:1004D0000C062037B6FBF4FCA7EB0507103F07F02E
:1004E0001F0BCBF120060CFA0BFB2CFA06F644BFCF
:1004F000B3460026202FA4BF5E464FF0000B5BEAF8
:10050000060C08BF4FF0010B19EB0B09ABFB027C8B
:1005100048EB0608C01B06FB02CC0BFB03CC71EBBF
:100520000C01C1E70B46024641464846BDE8F08B48
:1005300013B54FF000004FF00001AFF30080BDE8AD
:100540001C40704710B500F073F8006810BD10B57E
:10055000044600F06DF8046010BD2DE9F0470D462B
:1005600099469246044600F124080168880604D59D
:10057000E06921F01001216000E00120A84201DDC6
:10058000471B00E00027A1697A1902EB0900081A4D
:10059000A0612078C00602D42046AFF30080002678
:1005A00008E0D4E901211AF806009047206A401CAF
:1005B000761C20624E45F4DB2078C0060AD5204622
:1005C000AFF3008006E0D4E9012130209047206A93
:1005D000401C2062381EA7F10107F4DC07E0D4E9D3
:1005E000012118F805009047206A401C2062281E4F
:1005F000A5F10105F3DC2046AFF30080207800066A
:1006000002D50220BDE8F0870120FBE7074B70B55B
:100610000D467B4400F015F80446284600F024F807
:1006200010B14FF0FF3070BD204670BD636B00000D
:1006300000487047B018002001694A1C0261087820
:10064000704700B58FB0CDE9013100210591054912
:100650007944CDE9031011466846FFF70BFE0FB051
:1006600000BD0000E5FFFFFF007B00F08000704749
:1006700000487047B01800207546FFF7F9FFAE46F6
:1006800005006946534620F00700854618B020B59E
:10069000FFF7ACFDBDE820404FF000064FF000072B
:1006A0004FF000084FF0000B21F00701AC46ACE81A
:1006B000C009ACE8C009ACE8C009ACE8C0098D4687
:1006C000704710B50446AFF300802046BDE81040E7
:1006D000FFF778BD70B5044600688168C943C90753
:1006E00017D1816821F00101816001F0C9FC054644
:1006F0000AE000BF01F0C4FC401B022804D92068B6
:100700008068C043C00706D020688068C043C00727
:10071000F0D0002070BDA06A40F01000A062E06A36
:1007200040F00100E062012070BD0000F8B5002635
:100730000446009600688168C943C9072DD08168C6
:1007400041F001018160164816490068B0FBF1F0E4
:1007500000E0401E00900028FBD101F091FC05460E
:1007600016E000BF01F08CFC401B022810D9206865
:100770008068C043C0070BD0A06A40F01000A062A0
:10078000E06A40F00100E06284F824600120F8BDD6
:1007900020688068C043C007E4D10020F8BD000095
:1007A0007800002040420F002DE9F0474448032123
:1007B00086B000684000A0F5FA6090FBF1F6002ECC
:1007C00001DA002602E0642E00DD64263D4CA068BC
:1007D00009F0F4FC3C4DDFF8F4802A46434609F06A
:1007E000DDF909F045F9070000D54742606809F0D6
:1007F000E5FC2A46434609F0D1F909F039F905002C
:1008000000D545422078F0B100202070304C21788E
:1008100001291AD0002846D02E48006809F030FE81
:1008200005462D48006809F02BFE04462B48006859
:1008300009F026FE06B02B462246BDE8F0470146E9
:1008400027A0FFF70BBD0120DFE72948006809F06A
:1008500017FE82462748006809F012FE81462648A6
:10086000006809F00DFE80462448006809F008FE83
:1008700007462348006809F003FE06462148006841
:1008800009F0FEFD0025CDE902A501460595049578
:100890003B4632461CA0CDE90089FFF7DFFC2570FE
:1008A00006B0BDE8F0872048006809F0E9FD009037
:1008B00033463A4629461DA0FFF7D0FCF0E700007A
:1008C000340000202C0200209A9999999999F13FBF
:1008D0005C00002010020020080200200C02002012
:1008E0007B4225643A25643A25647D24000000009B
:1008F000200000201C000020180000201400002010
:10090000100000200C0000207B4325643A25643A47
:1009100025643A25643A25643A25643A25643A25E3
:10092000643A25647D2400003C0000207B4125645E
:100930003A25643A25643A25647D240070B504465E
:1009400010480D46006809F0D7FD214609F03CFF2C
:100950000D49044685F00040096809F02DFE0B4959
:1009600009F0CCFC05460B480949006809F0C6FCB3
:10097000214609F021FE294609F026FFBDE8704016
:1009800009F07EBD38000020100000200000C842A1
:100990000000C8C20C000020FEE7000030B5164879
:1009A00085B0816941F008018161816901F0080128
:1009B0000491816941F004018161816901F00401C0
:1009C0000491816941F0010181618069022401255E
:1009D00000F00100CDE90045CDE903406946074834
:1009E00001F058FACDE9004569460548039401F045
:1009F00051FA05B030BD000000100240000801406F
:100A0000000C0140FFF7CABF0E4810B50078062859
:100A100017D10D480078012813D00C480078012820
:100A20000FD00C490C4C0A4808606078401CC0B2DA
:100A30006070042805D104F091FB00F053FB002006
:100A4000607010BD04000020260000202700002058
:100A50000000204250000020D80000202DE9F04185
:100A60000F460B4E0B4C403809F046FD054621461B
:100A7000384609F0A1FD04463146284609F09CFDA0
:100A8000214609F0C7FBBDE8F04109F0F9BC0000C0
:100A90000000F0418FC2F53D10B507F02DFF042096
:100AA00004F098FC07F006FD214A0023116D08446C
:100AB000C41F20491065AD2C00D20B70A0F1B50405
:100AC000B32C01D201240C70A0F26914B32C01D212
:100AD00002240C70A0F21D24B32C01D203240C704C
:100AE000A0F2D124B32C01D204240C70A0F28534DE
:100AF000B32C01D205240C70A0F23944B32C01D2DE
:100B000006240C70A0F2ED44B32C01D207240C7023
:100B1000B0F5B46F01DD0B701365322005F0F4FC05
:100B2000012801D0012010BD04F0A6F8002010BD5E
:100B3000D8000020040000202DE9F0410D4C0A46A9
:100B400007460B4E1046216809F036FD216B09F06F
:100B500061FB0146084809F02FFD0546314638463D
:100B600009F02AFD294609F055FB2063BDE8F08114
:100B70000AD7A33C4401002048E17A3F2DE9F04127
:100B80000D4C0A4607460B4E1046216809F014FD2D
:100B9000216E09F03FFB0146084809F00DFD0546AE
:100BA0003146384609F008FD294609F033FB206636
:100BB000BDE8F0810AD7A33C4401002048E17A3F18
:100BC000F8B5374F002601200096387002466B4674
:100BD0007521682006F034FD32A0FFF73FFB9DF839
:100BE000000068280CD0BFF34F8F37480168374AA0
:100BF00001F4E06111430160BFF34F8F00BFFDE7D7
:100C000006F0CAFE002848D1782007F083FB10B90F
:100C100024A0FFF723FB782006F0F0FD10B92CA0EC
:100C2000FFF71CFBC82007F035FB10B932A0FFF717
:100C300015FB05F03DFF10B939A0FFF70FFB454844
:100C4000044606F05FFD0546E01C06F05BFD45EA44
:100C5000C005A01D06F056FD45EA801080B206F0E2
:100C6000E7F810B93CA0FFF7F9FA40F2731005F06D
:100C7000F7FD10B942A0FFF7F1FAC82006F040F8DE
:100C800010B949A0FFF7EAFA08F0E0FB012007F0ED
:100C900027FA10B94DA0FFF7E1FA3E70F8BD000049
:100CA000030000206D70755F7365745F73656E730C
:100CB0006F7220636F6D706C657465202E2E2E2E02
:100CC0002E2E0D0A000000000CED00E00400FA05D5
:100CD0006D70755F636F6E6669677572655F666973
:100CE000666F20636F6D706C657465202E2E2E2EDE
:100CF0002E2E0D0A000000006D70755F7365745F25
:100D000073616D706C655F7261746520636F6D7087
:100D10006C657465202E2E2E2E2E2E0D0A000000DE
:100D2000646D705F6C6F61645F6D6F74696F6E5F2F
:100D30006472697665725F6669726D77617265204B
:100D4000636F6D706C657465202E2E2E2E2E2E0D09
:100D50000A00000020020020646D705F7365745FFC
:100D60006F7269656E746174696F6E20636F6D7008
:100D70006C657465202E2E2E2E2E2E0D0A0000007E
:100D8000646D705F656E61626C655F6665617475E8
:100D9000726520636F6D706C657465202E2E2E2E2B
:100DA0002E2E0D0A00000000646D705F7365745F85
:100DB0006669666F5F7261746520636F6D706C65E4
:100DC0007465202E2E2E2E2E2E0D0A006D70755F4E
:100DD0007365745F646D705F737461746520636FB5
:100DE0006D706C657465202E2E2E2E2E2E0D0A0031
:100DF00070B51648006809F07FFB154909F07EFAC6
:100E0000044614480121006800F06CF812480A21D9
:100E10000068B0FBF1F009F087FB022100F062F8F6
:100E20000321204600F05EF8032000F01BF80B4A77
:100E300000210B4C131D06E015686D06FCD5655CA2
:100E40001D60491CC9B28142F6D370BD3400002038
:100E50000000C8423C00002058000020003801403B
:100E6000541800200A2839D890B31D4924220B2891
:100E70000A7033D2DFE800F032060A0E12161A1E8C
:100E800022272D000520487106207047092048724E
:100E90000A2070470D2048730E20704711204874B7
:100EA0001220704715204875162070471920487683
:100EB0001A2070471D2048771E207047212081F896
:100EC000210022207047252081F825002620704728
:100ED00004E0292081F829002A20F8E70020F6E71D
:100EE0005418002003B50A2912D8002910D00B2964
:100EF0000ED2DFE801F00D06080E10121416181AB3
:100F00001C00012200E005220A49684600F05CF955
:100F10000CBD0922F8E70D22F6E71122F4E71522AD
:100F2000F2E71922F0E71D22EEE72122ECE7252265
:100F3000EAE7000054180020704700002DE9F04156
:100F400009F037FC0D4E0546B16909F03DFC0C492E
:100F500009F032FB09F032F907460C46284609F041
:100F60002DF90022074B08F019FE3A46234609F0F6
:100F70003BF808F0FBFAB561BDE8F0819C00002069
:100F80000000C842000004C00020401C0A28FCDB0E
:100F9000704700003EB50021124800910191104AAF
:100FA0000291026081600173017501244FF4602297
:100FB0000461C261416000F051FC08B100F090F89A
:100FC0000720CDE9014069460648009400F0C2FBC5
:100FD00008B100F085F8034800F050FB3EBD00006A
:100FE000002401408803002070B5164800780728C7
:100FF00027D115480078012823D01448007801280B
:101000001FD0022000F02CF9114CE065012000F007
:1010100027F92066092000F023F96066216EE36D50
:1010200001EBC10202EB011203EB8205C72202FBB6
:1010300000521944084492FBF0F00749A0660548A5
:10104000086070BD0400002026000020270000205A
:10105000D800002000002042500000202DE9F0417F
:1010600007460E480B4E0C4C806E643809F044FA6B
:1010700005462146384609F09FFA0446314628467F
:1010800009F09AFA214609F0C5F8BDE8F04109F0E7
:10109000F7B9000000007042CDCC4C3ED8000020D3
:1010A0000B48D0F8300178B90A4A107801280BD1E2
:1010B00009480178491C017001780A2904D10021EE
:1010C00001701170054801704FF4805000F0D6BED9
:1010D00000002142050000200600002048000020FA
:1010E00072B6FEE770B5344A3449052410884C8244
:1010F00003464E8A32F816509D4200D32B46761C8A
:10110000B5B24D827B2DF4D388834C824D8A32F860
:101110001560864200D830466D1CADB24D827B2DE5
:10112000F4D388831844264BC0F3470018704C82D0
:101130004C8A32F81430834212D902EB44035D88A2
:1011400085420DD99D8885420AD9DD88854207D21E
:101150001D89854204D25B89834201D2CC8204E09E
:10116000641CA3B24B82762BE2D376238B829CB293
:1011700032F81430834212D202EB44035D88854278
:101180000DD29D8885420AD2DD88854207D91D8906
:10119000854204D95B89834201D90C8304E0641E33
:1011A000A3B28B82052BE2D8088BC98A0844054973
:1011B0004008087070BD000088020020D8000020A0
:1011C0004A0000204900002003788B5411444378E2
:1011D0004B7082788A70C078C87070472DE9F041F2
:1011E00009F0E7FA194C05461949A062206B8842BC
:1011F00002DC1849884200D921632846616B09F056
:10120000E3FAA16809F0D8F90646216BE06809F015
:10121000D3F907466068294680F0004009F0CCF910
:10122000394609F0D1FA314609F0CEFA6563E06239
:10123000094801680948006804F05CFB012801D1F5
:1012400000202063E06ABDE8F08100009C000020DF
:1012500000007A4400007AC4340000203C000020E2
:101260003EB56946009007200290012001900A488F
:1012700000F070FA084800F06FFC1E21064800F0EC
:10128000CDFB054800F0E4FA800503D5024800F0E4
:10129000E1FA84B220463EBD880300202DE9F04FDC
:1012A00085B0044604F0B0F89C49DFF874B29D4F55
:1012B0000860012C7ED04421D02002F041FC04467D
:1012C0004321D02002F03CFC04EB002009F02CF973
:1012D00004464621D02002F033FC05464521D020AB
:1012E00002F02EFC05EB002009F01EF98046482193
:1012F000D02002F025FC05464721D02002F020FC3A
:1013000005EB002009F010F906463C21D02002F040
:1013100017FC05463B21D02002F012FC05EB002013
:1013200009F002F982463E21D02002F009FC054670
:101330003D21D02002F004FC05EB002009F0F4F878
:1013400081464021D02002F0FBFB05463F21D02002
:1013500002F0F6FB05EB002009F0E6F80546B4F1D3
:101360008E4F05DD4FF08F41204609F02DFA0446DF
:101370004046B8F18E4F04DD4FF08F4109F024FA5A
:101380008046B6F18E4F05DD4FF08F41304609F0B3
:101390001BFA06465046BAF18E4F04DD4FF08F41DE
:1013A00009F012FA82464846B9F18E4F06DD4FF039
:1013B0008F4100E052E009F007FA8146B5F18E4F07
:1013C00005DD4FF08F41284609F0FEF9054684F00F
:1013D00000415046CBF8001008F0F0FEDFF848A1BD
:1013E000DFF848B152465B4608F0AEF908F0BEF8A7
:1013F0000290484608F0E2FE52465B4608F0A4F927
:1014000008F0B4F80190284608F0D8FE52465B4632
:1014100008F09AF908F0AAF80090204608F0CEFEED
:10142000DFF80CB14FF066394A465B4608F08CF99C
:1014300008F09CF88246404608F0C0FE4A465B46EB
:1014400008F082F908F092F881463A48DFF8E8B0EF
:10145000007802281ED0032848D056E003F0BEFED4
:101460003648374C39680160B4F9000009F044F897
:10147000CBF80000B4F9040009F03EF831490860E7
:101480003148B0F9040009F037F83049086005B078
:10149000BDE8F08FDDE900108AF0004202F010FD97
:1014A00008F08CFE2A4CDFF8AC802246434608F058
:1014B0004BF9DFF8A4A00022534608F06FFB08F0B8
:1014C00055F838604A460099029802F025FE08F067
:1014D00075FE2246434608F037F90022534608F0CD
:1014E0005DFB08F043F8CBF800000EE021460498BD
:1014F000FFF722FB80F00040386041460398FFF779
:101500003DFB80F00041CBF800100C4839680160C9
:101510000C4806600D480560B9E700003000002067
:10152000400000200C0200208FC2F5285C1F9A406A
:10153000665E8D4000000020080200203C00002074
:1015400014020020440000201A0200206000002045
:10155000F1D4C853FB210940008066402DE9F05FBB
:101560008B4608F0B4FA274C0022234608F016FBFD
:101570006FF001052A4609F0CEF9234E00223346CA
:1015800008F0E2F8214F00223B4608F0DDF807F0B2
:10159000EDFF08F013FEDFF87880DFF878A0424610
:1015A000534608F0FBFADFF8709000224B4608F033
:1015B000F5FA07F0DBFF19490860584608F087FA8A
:1015C0000022234608F0EAFA2A4609F0A4F900228C
:1015D000334608F0B9F800223B4608F0B5F807F0AA
:1015E000C5FF08F0EBFD4246534608F0D7FA00224B
:1015F0004B4608F0D3FA07F0B9FF09490860BDE887
:10160000F09F00000000694000003E4000002A40BA
:10161000F1D4C853FB21094000C0504030020020E3
:101620003402002010B5114800F096FA32210F481C
:1016300000F0F4F90D4800F00DF980B208F05EFA00
:101640004FF066320A4B08F0A9FA0022094B08F065
:10165000A5FA0022084B08F0A1FA6FF00B0209F07E
:101660005AF9BDE8104008F003BA0000B8030020A2
:1016700066660A400000264000005940F8B5002583
:101680000446009590F82400012808D0012084F831
:1016900024002046FFF71EF8060002D053E0022087
:1016A000F8BDA06A20F4885040F00200A062022039
:1016B00000F098FD26490968B1FBF0F0400000E019
:1016C000401E00900028FBD12046FFF72FF820682D
:1016D000816841F00801816000F0D2FC074608E013
:1016E00000F0CEFCC01B0A2803D9206880680007E0
:1016F00015D4206880680007F2D42068816841F022
:101700000401816000F0BCFC074612E000F0B8FC68
:10171000C01B0A280DD920688068400709D5A06A37
:1017200020F0020040F01000A06284F82450012054
:10173000F8BD206880684007E8D4A06A20F0020065
:1017400040F00100A06284F824503046F8BD00004B
:1017500078000020F8B50024009490F82420254655
:10176000012A12D0012280F824204A681F23072A68
:101770000DD20668776B521E02EB820293409F43A4
:101780000B6893401F43776319E00220F8BD066899
:101790000D2A0AD2376BD21F02EB820293409F437D
:1017A0000B6893401F43376309E0F76A0D3A02EB79
:1017B000820293409F430B6893401F43F7620A687D
:1017C000072306680A2A0AD3F7680A3A02EB42029C
:1017D00093409F438B6893401F43F76008E037694D
:1017E00002EB420293409F438B6893401F43376153
:1017F0000A68102A01D0112A20D1124B02689A429D
:1018000017D193681B0219D4936843F400039360C3
:101810000968102912D10C490C4A0968B1FBF2F190
:1018200001EB8101490000E0491E00910029FBD134
:1018300004E0816A41F020018162012480F8245093
:101840002046F8BD002401407800002040420F00EF
:10185000806A70470068C06C704700002DE9F04155
:101860004FF0000704003D467ED0A06A002628B94C
:10187000E66284F82460204600F07EF82046FEF7F9
:1018800029FFA16AC90600D420B1A06A40F0100067
:10189000A06269E0A16A21F4885141F00201A162CD
:1018A0006268E169237B0A4347EA43010A43A1686E
:1018B0004FF48077B94209D0012907D05FF00001C9
:1018C00094F814C0BCF1010F02D00AE03946F7E7E2
:1018D000F3B1A36A43F02003A362E36A43F0010378
:1018E000E3622368D3F804C02CF4694C4CEA010C81
:1018F000C3F804C021688B68DFF870C003EA0C03EA
:1019000013438B60A168B9420BD0012909D00CE0C8
:10191000DFF85CC0A3690CEB43330B4343F4006175
:10192000DFE7218A0D05A5F580152168CB6A23F430
:1019300070032B43CB62216889680E4B194091429A
:1019400008D1E662A16A21F0020141F00101A16221
:10195000BDE8F081A06A20F0020040F01000A06213
:10196000E06A40F00100E0620120F1E7FDF7E1FFED
:1019700000E0FFFFFE0E1FFF00B585B000210091C3
:10198000019102910391204B0268204803219A4261
:101990001DD1826942F400728261826902F4007290
:1019A0000492826942F004028261826902F00402B8
:1019B0000492826942F008028261806900F00800A6
:1019C00004900420CDE900016946114817E0114B4D
:1019D0009A4216D1826942F480628261826902F47D
:1019E00080620492826942F008028261806900F09C
:1019F000080004900120CDE900016946064800F086
:101A000049FA05B000BD000000240140001002406A
:101A10000008014000280140000C01402DE9F84376
:101A200000270D460446009700F02AFB80462068F8
:101A30008168C90508D5A06A40F02000A06284F83A
:101A400024700120BDE8F8834168C90503D4C06A49
:101A500010F4700F2AD0022000F0C4FB3B49096843
:101A6000B1FBF0F62068036939490B424FEA610186
:101A70004FEAA1121FD1C3684FEA611C13EA0C0F91
:101A800019D103690B4225D1C068104222D114201C
:101A900023E0681C0AD02DB100F0F2FAA0EB080098
:101AA000A84203D920680068800725D5206800680F
:101AB0008007EED52DE003690B4202D1C1681142C7
:101AC00006D0026923490A4206D1C068084203D100
:101AD000542002E0292000E0FC204643009816E054
:101AE000681C11D02DB100F0CBFAA0EB0800A84281
:101AF0000AD90098B04207D2A06A40F00400A06260
:101B000084F8247003209DE70098401C0090B042A8
:101B1000E6D321686FF012000860A06A40F40070FC
:101B2000A06220688068C0F3424007280CD1207B67
:101B300050B9A06A20F48070A062A06AC00403D4E7
:101B4000A06A40F00100A06200207BE7780000203E
:101B5000244992244992240070B5044690F8240048
:101B600001280DD0012084F824002046FEF7DEFD78
:101B700002004FF0000005D084F82400104670BD2C
:101B8000022070BDA16A40F20123994341F48071A3
:101B9000A1621F4D23681F49AB4218D10E6816F48D
:101BA000702F14D0A66A46F48016A6620E687605D9
:101BB00005D5A66A26F4005646F48056A662A66AA3
:101BC000F6040AD5E66A26F00606E66206E0A66A8C
:101BD00026F48016A6625E68E9E7E06284F82400D5
:101BE0006FF00200186020688368C3F34243072B3C
:101BF00005D1A84208D1096811F4702F04D081687A
:101C000041F480118160B9E7816841F4A001F9E7EE
:101C1000002801400424014010B590F82110002252
:101C2000022905D00421816380F82020012010BD05
:101C300001680B6823F00E030B6001680B6823F04A
:101C400001030B6090F84030C46B012101FA03F3EB
:101C5000636080F8211080F82020104610BD00003D
:101C600010B590F821100024022903D004218163CB
:101C700001243DE001680A6822F00E020A60016852
:101C80000A6822F001020A601A4A0168914201D1F1
:101C9000012121E0174A1432914201D110211BE0A9
:101CA000144A2832914201D1891515E0114A3C327B
:101CB000914201D189140FE00E4A5032914202D173
:101CC0004FF4803108E00B4A6432914202D14FF464
:101CD000801101E04FF08071064A083A51600121FD
:101CE00080F82110002180F82010416B01B1884755
:101CF000204610BD080002402DE9F84FB0F5805F86
:101D000036D1514C207800B3002020704F48007825
:101D1000FFF7C4FA032003F05DFB4042009004206B
:101D200003F058FB4042834601460098FFF716FC3B
:101D300020780025DFF81891012808D0454F387821
:101D4000012816D0022814D015E00120DDE7FFF7A6
:101D500069FC2062616A491C6162A26A64291044BC
:101D6000A0626ED190FBF1F1C9F80010A562656226
:101D700067E003F00BFB02F0FFFA03F077FB02F0E1
:101D800019FB02F091FB02F00DFCFEF73DFEFFF7A0
:101D90002BF93148314C01682068FEF7CFFD8046B1
:101DA0005946009803F0CCFE064639782C4806299F
:101DB00039D0006807293CD003F040FD08EB06014C
:101DC00001EB000C274EDFF8A080081AC6F800C00F
:101DD000264F41F6F42AC8F8000043463A465146D9
:101DE000604603F013F930603A465146186803F034
:101DF0000DF918601E485B46009A2168006803F0E0
:101E00000DF91C4F08B1012038705A46009920681E
:101E100003F062F900B13D70D9F80010206803F0BA
:101E200069FD48B10DE0016813480078FEF716FE21
:101E3000C4E7FFF713F9C1E7D8F80010306803F0E2
:101E400029FB0020BDE8F88FD8000020000000200A
:101E50003400002004000020400000203C0000204E
:101E600044000020280000202C0000200CE5FFFF8B
:101E7000600000200200002049000020044910B545
:101E80000A68024202D00860FFF736FF10BD00006A
:101E9000140401402DE9F84FDFF8B891002409F14E
:101EA000040A0AF1040B23460F270BF1040EC9E0C4
:101EB0000125A5402A40AA427DD1674ED1F804C031
:101EC000ACEB0608B44532D014DCBCF1030F3AD0B9
:101ED00009DCBCF1000F2AD0BCF1010F1CD0BCF111
:101EE000020F31D11DE0BCF1110F17D0BCF1120F60
:101EF0002AD119E0B8F5881F19D006DCB8F5803F63
:101F000015D0B8F5801F1FD111E0B8F5001F0ED015
:101F1000B8F5041F18D10AE0CB6815E0CB681B1D8B
:101F200012E0CB6808330FE0CB680C330CE08B6811
:101F30002BB1012B4FF0080303D0456104E00423CB
:101F400002E0056100E00023FF2A01D8064601E017
:101F500000F104064FEA840501D9A5F12005D6F861
:101F6000008007FA05FC28EA0C0803FA05F548EAA0
:101F70000508C6F800804D68ED0062D5374DAE69A2
:101F800046F00106AE61AD6924F0030605F00105D7
:101F90000095334D06EB050CDCF80850A607360F0C
:101FA00007FA06F825EA0805DFF8B880404503D1AE
:101FB0004FF0000817E044E0DFF8AC80404502D164
:101FC0004FF001080FE0DFF8A480404502D14FF048
:101FD000020808E0DFF89880404502D14FF003087E
:101FE00001E04FF0040808FA06F848EA0508CCF8C2
:101FF00008804D68D9F80060ED034D4601D51643C1
:1020000000E096432E604D68DAF80060AD03554657
:1020100001D5164300E096432E604D68DBF8006062
:10202000ED025D4601D5164300E096432E604D68F3
:10203000DEF80060AD02754601D5164300E0964318
:102040002E60641C0D682A46E5407FF431AFBDE880
:10205000F88F000000040140000011100010024041
:102060000000014000080140000C01400010014048
:10207000001401400AB1016170470904FBE7000048
:1020800001488068704700006C00002002488168A9
:1020900002781144816070476C000020074810B539
:1020A000016841F010010160032000F089F803206D
:1020B00000F006F800F024F8002010BD00200240D7
:1020C00070B50D4D04464FF47A712878B1FBF0F0ED
:1020D0000A490968B1FBF0F000F0DAFB48B9102CAE
:1020E00007D200222146501E00F04AF800206C6002
:1020F00070BD012070BD00006C0000207800002041
:102100000E4808B5816941F001018161816901F0E2
:1021100001010091C16941F08051C161C06900F0C5
:1021200080500090052000F04BF80548416821F0F0
:10213000E06141F00071416008BD00000010024004
:102140000000014000280DDB00F01F02012191403A
:102150004009800000F1E020C0F88011BFF34F8FEC
:10216000BFF36F8F7047002809DB00F01F020121C9
:1021700091404009800000F1E020C0F80011704754
:10218000F0B40E4B1B680C46C3F30223C3F10705E2
:10219000042D00D90425191D072901D2002300E0D0
:1021A000DB1E012606FA05F1491E214099409E409A
:1021B000761E16403143F0BC03F0C6BD0CED00E0C6
:1021C000064900F0070208684FF6FF03184040EA8E
:1021D0000220034A10430860704700000CED00E045
:1021E0000000FA0510B529A401461DCC86B08DE883
:1021F0001D002AA02A4C006804900020012923D049
:1022000002293AD010291DD161682268D20119D55E
:10221000C1F38342C9031DF8020009D5616804AA0D
:10222000C1F34041515C1F4AB2FBF1F1484301E068
:102230001D4948436168490204D440005FF003012E
:10224000B0FBF1F006B010BD226AC2F301210129F2
:1022500003D1920701D5C803F4E7022905D1626AC8
:10226000920702D549F64040ECE70329EAD12168FC
:102270008903E7D54FF22440E4E700F033F96168C1
:10228000C1F38131491C4900DAE70000020304056B
:10229000060708090A0B0C0D0E0F101001020000B2
:1022A0000010024000127A0000093D002DE9F843B9
:1022B00005460078354CC00754D0E0690026C000C0
:1022C00008D4E06940F08050E061E069012600F048
:1022D000805000902E480168C90512D401688046DC
:1022E00041F480710160FFF7CBFE074605E000BFB7
:1022F000FFF7C6FEC01B642823D8D8F80000C0052D
:10230000F6D5206A10F4407021D0A98801F44071FC
:1023100081421CD0206A1F49012220F440700A60CB
:1023200000220A602062C00711D0FFF7A9FE07460D
:1023300041F2883808E000BFFFF7A2FEC11B41450B
:1023400002D90320BDE8F883206A8007F4D5206A0B
:10235000696820F44070084320621EB1E06920F0F3
:102360008050E0612878800705D56068A96820F46E
:102370004040084360602878C00605D56068E96879
:1023800020F48000084360600020DBE7001002407A
:1023900000700040400442422DE9F0470F4605001E
:1023A00061D0434E306800F00700B84209D230686F
:1023B00020F0070038433060306800F00700B84272
:1023C00051D128683B4C810712D5400703D560687E
:1023D00040F4E06060602878000703D5606840F44E
:1023E000605060606068A96820F0F0000843606099
:1023F0002878C00728D06868012810D021680228F2
:1024000010D0890700292EDA616821F00301014309
:102410006160FFF735FE804641F288390DE02168A2
:102420008903EFE78901EDE7FFF72AFEA0EB08013A
:10243000494502D90320BDE8F0876068696800F06B
:102440000C00B0EB810FEFD1306800F00700B8420C
:102450000BD9306820F0070038433060306800F056
:102460000700B84201D00120E5E72878400705D5EC
:102470006068E96820F4E06008436060287800073D
:1024800006D56068296920F4605040EAC1006060A8
:1024900000F038F86168084AC1F30311515CC84084
:1024A0000649086006480068FFF70AFE0020C2E7F8
:1024B0000020024000100240EEA900087800002031
:1024C000700000200448054900684968044AC1F3C7
:1024D0000221515CC8407047780000200010024083
:1024E000FEA900080448054900684968044AC1F388
:1024F000C221515CC84070477800002000100240A3
:10250000FEA9000812A185B00FC98DE80F0014A024
:10251000144A006804905168134801F00C03042B1E
:1025200010D0082B0ED1C1F38343C9031DF803005B
:102530000AD5516804AAC1F34041515C0A4A50438C
:10254000B0FBF1F005B0704708494843FAE70000D6
:1025500002030405060708090A0B0C0D0E0F1010E4
:10256000010200000010024000127A0000093D0044
:102570002DE9F84F040070D02078C04DC00749D035
:102580006868C0F38100012807D06868C0F3810043
:10259000022809D16868C00306D52868800339D5A8
:1025A00060680028E7D035E06068B0F5803F0BD068
:1025B00010B1B0F5A02F11D0286820F48030286029
:1025C000286820F4802002E0286840F480302860E9
:1025D000606890B1FFF754FD06460AE0286840F4B1
:1025E00080202860F0E700BFFFF74AFD801B6428C9
:1025F00073D828688003F7D50CE0FFF741FD064645
:1026000005E000BFFFF73CFD801B6428F0D8286878
:102610008003F7D420789A4E80074FF001094FF0DD
:10262000000839D5686810F00C0F07D06868C0F34F
:102630008100022809D16868C00306D42868800791
:1026400014D52069012808D110E02069B0B1C6F87E
:102650000090FFF715FD074605E00AE1FFF710FDC2
:10266000C01B0228C4D828688007F7D5286861698C
:1026700020F0F80040EAC10028600DE0C6F80080B4
:10268000FFF7FEFC074604E0FFF7FAFCC01B022838
:1026900023D828688007F7D4207800072CD57948FC
:1026A000A169D9B1C0F80090FFF7EAFC074604E041
:1026B000FFF7E6FCC01B02280FD8686A8007F7D531
:1026C00071484FF4FA510068B0FBF1F0009000BF80
:1026D0000098411E0091FAD20EE080E0C0F8008020
:1026E000FFF7CEFC074604E0FFF7CAFCC01B022838
:1026F00075D8686A8007F7D42078400760D5E86904
:102700000027C00008D4E86940F08050E861E8691B
:10271000012700F0805000905C480168C90513D47F
:102720000168834641F480710160FFF7A9FC82468D
:1027300006E000BFFFF7A4FCA0EB0A0064284ED817
:10274000DBF80000C005F5D5E06801280AD008B123
:10275000052813D0286A20F001002862286A20F09A
:10276000040002E0286A40F001002862E06841F2BB
:10277000883B98B1FFF784FC82460BE0286A40F062
:1027800004002862EEE700BFFFF77AFCA0EB0A0125
:1027900059455AD8286A8007F6D50CE0FFF770FC37
:1027A000824605E0FFF76CFCA0EB0A0159454CD8C6
:1027B000286A8007F6D41FB1E86920F08050E861EC
:1027C000E06988B36968C1F38101022944D0022815
:1027D000C6F8608004D0FFF753FC044638E034E0CC
:1027E000FFF74EFC074604E0FFF74AFCC01B022837
:1027F0002BD828688001F7D4206AB0F5803F05D136
:102800006868A16820F4003008436860D4E90801D2
:102810000843696821F4741108436860C6F8609041
:10282000FFF72EFC044606E025E000BFFFF728FC7A
:10283000001B022809D828688001F7D51BE000BFDB
:10284000FFF71EFC001B022802D90320BDE8F88F09
:1028500028688001F4D40EE00128F7D06868226A65
:1028600000F48031914204D1616A00F47010884212
:1028700001D00120EAE70020E8E700000010024054
:102880000000424280044242780000200070004074
:1028900010B5401EB0F1807F01D3012010BD4FF074
:1028A000E02460610F21601703F04EFA0020A06160
:1028B00007202061002010BD7047704710B590F8C8
:1028C0003C20012A22D0012280F83C20CA688C6872
:1028D00022F4407222434C6822F4806222430C6846
:1028E00022F4006222430C6922F4805222434C6994
:1028F00022F400522243C969002322F480420A4391
:1029000001684A6480F83C30002010BD022010BDF0
:1029100070B590F83C20012A26D0012480F83C4074
:10292000022280F83D2003685A689D6822F07006F4
:102930000A6832435A600D4B02689A4208D0B2F1DD
:10294000804F05D00A4B9A4202D00A4B9A4204D1DA
:10295000496825F080031943916080F83D400021CB
:1029600080F83C10084670BD022070BD002C01406C
:10297000000400400008004010B5040003D094F8A3
:102980003D0010B107E0012010BD002084F83C009C
:10299000204600F01FF8022084F83D00211D206829
:1029A00002F0E8FD012084F8460084F83E0084F837
:1029B0003F0084F8400084F8410084F8420084F825
:1029C000430084F8440084F8450084F83D0000206A
:1029D00010BD000000B585B0002100910191029169
:1029E0000391184A01681848914209D1816941F45C
:1029F00000618161806900F40060049005B000BD51
:102A0000B1F1804FFAD1C16941F00101C161C169E1
:102A100001F001010491816941F004018161806943
:102A2000694600F004000490022000900748FFF778
:102A300031FA012211461C20FFF7A2FB1C20FFF7F0
:102A400092FBDBE7002C014000100240000801402F
:102A500090F83D10012901D001207047022180F833
:102A60003D100168CA6842F00102CA6000680B4963
:102A7000884208D0B0F1804F05D00949884202D081
:102A80000849884204D1816801F00701062903D072
:102A9000016841F00101016000207047002C0140F5
:102AA000000400400008004070B5044690F83C0067
:102AB000012817D0012584F83C50022084F83D00FD
:102AC0002068826822F0770222F47F4282600868E0
:102AD000502830D00DDC20284DD005DC98B31028CC
:102AE0003BD148E0022070BD302844D0402834D18A
:102AF00039E0602828D0702806D0B0F5805F2CD04F
:102B0000B0F5005F29D10AE0CB68D1E90121206846
:102B100002F073FD2068816841F0770109E0CB681D
:102B2000D1E90121206802F068FD2068816841F444
:102B30008041816011E0CA684968206802F012FE95
:102B40005021206807E016E0CA684968206802F052
:102B500047FE6021206802F05AFD84F83D500020B5
:102B600084F83C0070BDCA684968206802F0FAFD2C
:102B700040212068EFE7226801461046EBE72DE987
:102B8000F0410D46040003D094F83D0018B108E070
:102B90000120BDE8F081002084F83C00204600F0D0
:102BA00041F8022084F83D002068816844F2070261
:102BB00091438160211D206802F0DCFC226890684E
:102BC0009169166A2B68AF69034340F20330814371
:102BD00041EA0721A868EF6908434FF6FC418843A2
:102BE000E96840EA0720014328692F6A000140EAAA
:102BF0000730084369686D6926F0220646EA051524
:102C0000294393602268906154F8460B01620120C9
:102C100004F81F09E0752076E0762077A075002083
:102C2000B7E7000000B585B0002100910191029145
:102C300003911A4B02681A48C0219A4213D1C26903
:102C400042F00202C261C26902F002020492826989
:102C500042F0040282618069009100F00400049057
:102C60006946104815E0104B9A4214D1C26942F0EF
:102C70000402C261C26902F004020492826942F055
:102C8000080282618069009100F0080004906946A2
:102C90000648FFF7FFF805B000BD00000004004043
:102CA000001002400008014000080040000C0140F4
:102CB00070B590F83E60044690F83F5090F842306E
:102CC00090F84320022021B104290ED0012E1BD1FF
:102CD00014E0012E18D1012B16D184F83E0084F89F
:102CE000420001220021206820E0012D0CD1012AA0
:102CF0000AD184F83F0084F8430014E0012D03D189
:102D0000012B01D1012A01D0012070BD84F83E00C1
:102D100084F83F0084F8420084F843000122002137
:102D2000206802F05DFC01220421206802F058FCBA
:102D30002068016841F001010160002070BD0000C1
:102D40002DE9F041254CA04245D1254D28880106AA
:102D500041D4410641F2111640F244471BD540F0E0
:102D6000800028800421204600F038FB688020681D
:102D7000016A314206D1016A394203D1016821F06A
:102D8000010101602068016A21F0A0010162206850
:102D9000016A01621BE000216980402028802068D0
:102DA000026A324206D1026A3A4203D1026822F034
:102DB00001020260206841622068016A21F0A001DE
:102DC00001622068016A41F0200101622068016807
:102DD00041F001010160BDE8F081000030040020F5
:102DE000640000202DE9F041054690F83C000C46B7
:102DF000012836D0012085F83C008AB3042A42D04D
:102E00002868082A51D0D4E90023E168066A26F42C
:102E100080560662C669076A26F4407646EA0323AE
:102E20004FF6FF7606EA013123F4704319434FF45D
:102E3000005627F4005306EA02321A43C1610262C7
:102E40002868C16921F44061C1612868C169A2682C
:102E500041EA0221C161002085F83C00BDE8F08113
:102E600001E00220FAE7D4E90012E368286802F0E2
:102E70008BFC2868816921F00C01816128688169D7
:102E8000A26811430FE0D4E90012E368286802F059
:102E9000B9FC2868816921F44061816128688169F1
:102EA000A26841EA02218161D5E7D4E90027267BA7
:102EB000016A21F480710162C169036A21F0030192
:102EC000394321F0F00731074FF4007647EA1161EA
:102ED00023F4007306EA02221A43C16102622868E1
:102EE000C16921F00C01C1612868C169A268114360
:102EF000B0E710B5040003D094F83D0010B107E02E
:102F0000012010BD002084F83C00204600F01EF88F
:102F1000022084F83D00211D206802F02BFB0120D7
:102F200084F8460084F83E0084F83F0084F84000AE
:102F300084F8410084F8420084F8430084F8440097
:102F400084F8450084F83D00002010BD7047000063
:102F500010B5044651B104290DD0082910D094F8B9
:102F6000410094F84520012811D10EE094F83E006C
:102F700094F84220F7E794F83F0094F84320F2E7F2
:102F800094F8400094F84420EDE7012A01D0012094
:102F900010BD022051B1042911D0082918D084F89D
:102FA000410084F845000C291BD136E084F83E002E
:102FB00084F842002068C26842F0020210E084F8FF
:102FC0003F0084F843002068C26842F0040207E032
:102FD00084F8400084F844002068C26842F0080287
:102FE000C2600122206802F0FBFA0E492068884284
:102FF00008D0B0F1804F05D00B49884202D00B4970
:10300000884204D1816801F00701062903D00168D4
:1030100041F001010160002010BD2068C26842F04B
:103020001002DDE7002C01400004004000080040D1
:1030300070B50446006801694FF00005C94389076F
:1030400015D4C168C943890711D4E91E0161012063
:103050002077206880698007204602D0FFF770FE45
:1030600004E000F0BFF8204600F04EF92577206814
:103070000169C943490717D4C168C943490713D433
:103080006FF004010161022020772068806910F44C
:10309000407F204602D0FFF753FE04E000F0A2F884
:1030A000204600F031F9257720680169C9430907F6
:1030B00016D4C168C943090712D46FF00801016131
:1030C000042020772068C0698007204602D0FFF7DF
:1030D00037FE04E000F086F8204600F015F9257769
:1030E00020680169C943C90617D4C168C943C90624
:1030F00013D46FF010010161082020772068C069A7
:1031000010F4407F204602D0FFF71AFE04E000F0E2
:1031100069F8204600F0F8F8257720680169C9436E
:10312000C90708D1C168C943C90704D1891E016113
:10313000204600F039F920680169C943090609D41D
:10314000C168C943090605D46FF0800101612046BA
:10315000FFF7B2FB20680169C943490609D4C16879
:10316000C943490605D46FF040010161204600F0D3
:103170004AF920680169C94389060BD4C168C9436B
:10318000890607D46FF0200101612046BDE8704038
:10319000FFF793BB70BD000000B585B00021009122
:1031A00001910291039100680B49884212D10B48AA
:1031B000816941F0040181618069694600F0040081
:1031C00004904FF410600090022001900390044896
:1031D000FEF760FE05B000BD002C0140001002406B
:1031E00000080140704770B5044690F83C000D4659
:1031F00001280AD0012084F83C0042B1042A18D0EA
:10320000082A2AD00C2A4DD139E0022070BD20684E
:1032100002F006FA2068816941F0080181612068A6
:10322000816921F004018161206881692A69114363
:1032300011E0206802F01CFA2068816941F4006105
:1032400081612068816921F48061816120688169E0
:103250002A6941EA0221816124E0206802F034FAFF
:103260002068C16941F00801C1612068C16921F08D
:103270000401C1612068C1692A69114311E0206815
:1032800002F04EFA2068C16941F40061C161206812
:10329000C16921F48061C1612068C1692A6941EA7C
:1032A0000221C161002084F83C0070BD10B504000B
:1032B00003D094F83D0010B107E0012010BD0020BC
:1032C00084F83C00204600F01EF8022084F83D00FF
:1032D000211D206802F04EF9012084F8460084F890
:1032E0003E0084F83F0084F8400084F8410084F8F0
:1032F000420084F8430084F8440084F8450084F8D0
:103300003D00002010BD70477047000010B5044616
:10331000022249B104290ED0082913D094F84100A3
:10332000012816D0012010BD94F83E000128F9D1E3
:1033300084F83E200FE094F83F000128F2D184F891
:103340003F2008E094F840000128EBD184F84020A9
:1033500001E084F841200122206802F041F90F4980
:103360002068884203D1426C42F4004242642068E3
:10337000884208D0B0F1804F05D00949884202D078
:103380000849884204D1816801F00701062903D069
:10339000016841F001010160002010BD002C0140D6
:1033A00000040040000800400A4988420AD10A4847
:1033B00001880A0606D44A0604D5CA43920602D0FA
:1033C000491C0180704741F0800101804FF6FF7178
:1033D0004180704730040020640000200246002035
:1033E00041B1042909D008290AD00C2901D110685B
:1033F000006C70471068406B70471068806B7047B6
:103400001068C06B7047704770477047F8B5026826
:1034100004461068D168536910F00F0F4FF0000593
:1034200053D003F0010601F4907737435FD0C20711
:1034300005D0CA0503D5226C42F00102226442077E
:1034400005D5DA0703D0226C42F00202226482071B
:1034500005D5DA0703D0226C42F004022264020789
:1034600007D501F02002324303D0226C42F008025B
:103470002264226C002A34D0800604D5880602D546
:10348000204602F07BFA20684069216CC0F380106E
:10349000090700D430B3204602F058FA2068416989
:1034A00049061BD5416921F040014161A06BA8B1DB
:1034B00058494163A06BFEF7D3FB002811D0A06BE5
:1034C000416B01B0BDE8F040084783060FD58B067D
:1034D0000DD52046BDE8F84002F050BA2046FFF76F
:1034E00094FFF8BD2046FFF790FF2564F8BD266BDA
:1034F0002023012E52D1C60650D5CE064ED51068D7
:1035000050680090506940062AD5A16B0868406851
:103510000004000CEAD0A68D8642E7D9E0858869D0
:10352000202818D0D06820F48070D06020684169CD
:1035300021F0010141612068416921F040014161B0
:1035400084F83E3025632068C16821F01001C16015
:10355000A06BFEF761FBA08DE18D401A81B219E0EE
:10356000A08DE18D401A81B2E08D0028BED00029E7
:10357000BCD0D06820F49070D0602068426922F0FE
:103580000102426184F83E3025632068C26822F05F
:103590001002C2602046FFF737FFF8BD05062BD5A5
:1035A0000D0629D594F83D002128F6D1A068B0F584
:1035B000805F01D12069B0B1206A411C216221687D
:1035C00000784860E08C401E0004000CE084E4D1E8
:1035D0002068C16821F08001C1602068C16841F0A5
:1035E0004001C160F8BD206A0088C0F30800506047
:1035F000206A801C2062E5E74006F3D54806F1D535
:10360000D168204621F04001D16084F83D3000F0BF
:1036100095FAF8BD3D59000870B5040004D094F83F
:103620003D00002510B106E0012070BD84F83C503B
:10363000204600F023F8242084F83D002068C1686B
:1036400021F40051C160204602F0F4F920680169BC
:1036500021F4904101612068416921F02A01416112
:103660002068C16841F40051C1602564202084F8BD
:103670003D0084F83E00002070BD0000F0B585B02C
:103680000024009401940294039403683F4F0220A5
:103690003F4903223F4D4602BB4220D18B6943F490
:1036A00080438B618B6903F4804304938B6943F0FF
:1036B00004038B618969039201F004010491010202
:1036C000CDE9001069462846FEF7E4FBCDE9006429
:1036D000694628460294FEF7DDFB05B0F0BD2E4F8B
:1036E000BB4226D1CB6943F40033CB61CB6903F4F1
:1036F000003304938B6943F004038B61896903925F
:1037000001F0040104910421CDE900106946284626
:10371000FEF7C0FB0820CDE9000469462846029464
:10372000FEF7B8FB012200212620FEF729FD262006
:1037300028E01A4DAB42D0D1CB6943F48023CB6152
:10374000CB6903F4802304938B6943F008038B61F6
:103750008969134D01F00801CDE90321CDE900602D
:1037600069462846FEF796FBE814CDE90004694651
:1037700028460294FEF78EFB012200212720FEF747
:10378000FFFC2720FEF7EFFCA7E700000038014010
:103790000010024000080140004400400048004082
:1037A000000C014090F83E30202B0ED159B152B19F
:1037B00090F83C30012B08D0012380F83C300023E6
:1037C000036302F093B901207047022070470000A4
:1037D0002DE9F05F0068C54A01210024DFF810835D
:1037E0004FF0020A904272D108F10700C14F0078F1
:1037F000C8F80C00C04AC14BC14DC24E88F8080041
:10380000592816D0582817D00A281ADD5A282DD042
:1038100041283DD045282ED0422830D043282ED0F4
:1038200044282CD046282FD047282DD048282BD0EC
:1038300003E087F800A000E0397014701C702C7051
:1038400034700A282ADA397007000FD001281FD0F7
:10385000052810D002281DD003281BD0042819D019
:10386000062829D0072827D0082825D014701C70D6
:1038700003E0347012E0147019702C70F9E71470C2
:103880001C702C703170DCE714701C702970D7E745
:103890001170ECE714701C702C703170944A9A4BC4
:1038A0007B2852780CD07D2812D098F80050012D3A
:1038B00008D0022D0ED078E014701C702970D8E763
:1038C00088F800109854521C88F801206DE071E0CF
:1038D00088F800A0D878502806D05878232858D0E7
:1038E00088F8022099462EE08848017051E000BF18
:1038F00098F80110081A06F0EAF802460B46002074
:10390000834905F0B7F8054698F802000E460746C9
:10391000484410F8010C303806F0D9F82A463346EE
:1039200006F03CF905460E46D8F8100006F046FCB5
:103930002A46334605F04CFE05F018FEC8F8100084
:10394000781E88F8020098F802000428D0D299F86E
:103950000100303806281CD2DFE800F003070B0F07
:1039600013176C49D8F8100012E06B49D8F8100012
:103970000EE06A49D8F810000AE06949D8F810004A
:1039800006E06849D8F8100002E06749D8F810004E
:10399000086088F8004088F8014088F80240322129
:1039A0005948C8F81040FCF709FD51490122C91DCA
:1039B0005E4895E05E4A904272D14D4F4C48BD1D25
:1039C0003A7997F805B05B4B98F803600BEB4B071F
:1039D000801D2D7807EB0309771C00781544EDB2A4
:1039E000FFB23A2E78D2DFE806F01D242B383B4296
:1039F00045484B50484B50484B50484B50484B5013
:103A0000484B50484B50484B50484B50484B5048FF
:103A10004B50484B50484B50484B50484B50484BEC
:103A2000505C6066A5280DD1187088F80310A53287
:103A300010E05A2806D1587088F803A05A3209E0DD
:103A40003A2802D088F8034044E09870032088F8B0
:103A500003003A3288F804203EE0D870042027E0C2
:103A60001871052024E000BF88F8045034E0587134
:103A700006201DE0987107201AE089F8070001E090
:103A800089F8080088F80370EEE789F8090088F8DB
:103A9000037088F804500BF1010088F805001BE062
:103AA00022E083F83700382002E083F8380039201C
:103AB00088F80300D8E783F8390088F8034088F8CD
:103AC0000540904202D102F065FD03E03A21194819
:103AD000FCF774FC88F80440054901221648891D4A
:103AE000BDE8F05FFFF75EBEBDE8F09F0048004014
:103AF0008800002001000020240000202500002074
:103B00002600002027000020D40900205C000020AF
:103B1000000024400C0000201000002014000020B1
:103B2000180000201C00002020000020900500202C
:103B300000440040101100204C0500207047FEE7B3
:103B400070B50D46044600F0C1F8204600F08EF82E
:103B500000F004F9284600F089F800F0FFF800F0C2
:103B6000B5F8641CE0B200F081F800F0F7F800202E
:103B700000F046F8044600F0D1F8204670BD000081
:103B800070B50D4C0025C4F8A0510C48016821F017
:103B9000F0010160016841F030010160C4F8A451F6
:103BA000012004F5D07402F023FE0120206002F011
:103BB0001FFE256070BD000000802142040C014002
:103BC00070B50D4C0025C4F8A0510C48016821F0D7
:103BD000F0010160016841F0300101600126C4F884
:103BE000A461304604F5D07402F002FE2660012084
:103BF00002F0FEFD256070BD00802142040C0140F2
:103C00002DE9F047814617480024016821F0F001B2
:103C10000160016841F080010160134E254627468E
:103C20004FF00108C6F8A071022002F0E1FDC6F8CD
:103C3000A0816006040ED6F8240108B1641CE4B229
:103C4000022002F0D5FD6D1CEDB2082DEAD3B9F1CA
:103C5000000F02D0FFF794FF01E0FFF7B1FF20460D
:103C6000BDE8F087040C0140008021422DE9F041BD
:103C700006461448016821F0F0010160016841F036
:103C800030010160104C0027C4F8A0713D464FF090
:103C90000108F009C4F8A4017006060E012002F024
:103CA000A7FDC4F8A081012002F0A2FDC4F8A07114
:103CB000012002F09DFD6D1CEDB2082DE9D3BDE899
:103CC000F0810000040C01400080214270B51148D1
:103CD000016821F0F0010160016841F030010160EC
:103CE0000D4C0120C4F8A401D4F8241149B1C4F842
:103CF000A00102F07DFD0025C4F8A451D4F82401F0
:103D000008B1002070BD012002F072FDC4F8A0517E
:103D1000012070BD040C0140008021420D4810B507
:103D2000016821F0F0010160016841F0300101609B
:103D3000094C0020C4F8A001C4F8A401012004F536
:103D4000D07402F055FD012020606060BDE8104095
:103D500002F04EBD040C01400080214270B51348B2
:103D60000024016821F0F0010160016841F0800148
:103D700001600F4D0126C5F8A461304602F038FD00
:103D8000C5F8A06107E0641CE4B2322C03D9FFF748
:103D9000C5FF002070BD012002F02AFDD5F82401E6
:103DA0000028F0D1C5F8A001012070BD040C01402D
:103DB0000080214210B51446FFF7C2FE207001209A
:103DC00010BDF8B515461C460E4607466A46FFF775
:103DD000F1FF01209DF80010A8400CB1084301E05C
:103DE00021EA0000C2B28DF800203146384600F0CA
:103DF0002BF8F8BD2DE9F84314461D460F468046C2
:103E00006A46089EFFF7D6FF00281BD0611CFF20E2
:103E1000C4F1080200FA01F12A44521ED0400143C5
:103E2000C5F108008640F2B2C4F10700C2409DF817
:103E30000000084010438DF80000C2B239464046E9
:103E400000F002F8BDE8F88307B502AB012200F0EC
:103E500001F80EBD2DE9F0411E461546884607467D
:103E60000024FFF733FF3846FFF700FFFFF776FF28
:103E70004046FFF7FBFEFFF771FF06E0305DFFF7FE
:103E8000F5FEFFF76BFF641CE4B2AC42F6D3FFF71C
:103E900045FF0120BDE8F08141060748826942F0F4
:103EA000010282610548426822F0E0624260426895
:103EB0000A434260704700000010024000000140C9
:103EC0002DE9F04F04469148ABB011AFB0E868104F
:103ED000299287E868106CC80DAF87E86C0050E93C
:103EE0001423CDE9272350E91223CDE9252350F8E7
:103EF000588900F15C031FAF93E80C1093461993A7
:103F000050F8682B2A926CC887E86C0050E918209A
:103F1000CDE923200020079008900490059006909A
:103F20001B901C9009900A900B9003900C901D9090
:103F30001E901A90E246084606F040F905460E46E5
:103F400084F0004006F03AF92A46334602F00EFAB1
:103F500005F00CFB6E4F15900DAC0222CDE9004729
:103F600007AE012311460296104604F059FA1BAA27
:103F700029A927A88DE8070001231A46194602201F
:103F800004F04EFA1B99079806F044F907F108056A
:103F900028601C99089806F03DF968600DF10C093D
:103FA00005F1280100940223CDE901191A461946AA
:103FB000184604F035FA09A91FAACDF80090CDE9FA
:103FC000012102231A461946184604F029FA4146EF
:103FD000099806F01FF94F4C594620600A9806F0E0
:103FE00019F9606019990B9806F014F9A060514610
:103FF0000C9806F00FF9E0600DF1940A0223CDE968
:1040000000A40DF1740B1A46CDF808B01946012032
:1040100004F006FA0DF1680823A9CDF800B0CDE947
:104020000118012302221146184604F0F9F92A99D1
:104030001A9806F0EFF801464FF07E5006F05EF950
:104040001A9023A8CDE900400222012311460296CE
:10405000104604F0E5F905F1080B01238DE840094D
:104060001A461946022004F0DBF9CDF800A0CDE98C
:104070000158012302221146184604F0D1F91A9979
:10408000159806F0A1FB1A90CDF800B00123CDE9F8
:1040900001861A461946022004F0C2F907992868D9
:1040A00006F0B8F838600899686806F0B3F87860E8
:1040B000CDF800B0CDE901A902230122114618462E
:1040C00004F0AEF90399119806F07EFB0390049971
:1040D000129806F079FB04900599139806F074FB8A
:1040E00005900699149806F06FFB069005F12800DC
:1040F000CDF800900223CDE901401A461946184632
:1041000004F08EF938682BB0BDE8F08FECC00008E1
:1041100038020020901800202DE9F04F0446934803
:10412000ABB000F178030F4693E8681011A929920B
:1041300081E8681000F188050DF134084ECD88E85B
:104140004E00D0E90812CDE92712D0E90A12CDE9D4
:104150002512B5E80E108846CDF858C04168924641
:104160009B462A912ECD1FAE86E82E00D0E90C107A
:10417000CDE9231000200790089004900590069048
:104180001B901C9009900A900B9003900C901D902E
:104190001E901A90384606F011F806460D4684F037
:1041A000004006F00BF832462B4602F0DFF805F02F
:1041B000DDF96F4F15900DAC0222CDE9004707AE37
:1041C000012311460296104604F02AF91BAA29A9D8
:1041D00027A88DE8070001231A461946022004F09B
:1041E0001FF91B99079806F015F807F108052860D4
:1041F0001C99089806F00EF868600DF10C0905F19D
:10420000200000940223CDE901091A4619461846F8
:1042100004F006F909A91FAACDF80090CDE9012103
:1042200002231A461946184604F0FAF8414609983E
:1042300005F0F0FF4F4C514620600A9805F0EAFF68
:10424000606059460B9805F0E5FFA06016990C9840
:1042500005F0E0FFE0600DF1940A0223CDE900A42F
:104260000DF1740B1A46CDF808B01946012004F080
:10427000D7F80DF1680823A9CDF800B0CDE90118F1
:10428000012302221146184604F0CAF82A991A9806
:1042900005F0C0FF01464FF07E5006F02FF81A904F
:1042A00023A8CDE9004002220123114602961046C0
:1042B00004F0B6F805F1080B01238DE840091A4611
:1042C0001946022004F0ACF8CDF800A0CDE9015861
:1042D000012302221146184604F0A2F81A991598F3
:1042E00006F072FA1A90CDF800B00123CDE90186EC
:1042F0001A461946022004F093F80799286805F039
:1043000089FF38600899686805F084FF7860CDF807
:1043100000B0CDE901A9022301221146184604F09C
:104320007FF80399119806F04FFA039004991298B8
:1043300006F04AFA04900599139806F045FA05909C
:104340000699149806F040FA069005F12001CDF880
:1043500000900223CDE901411A461946184604F09F
:104360005FF838682BB0BDE8F08F0000B4C00008DB
:1043700050020020A018002010B5322002F0C4F82E
:10438000012804D10948017859B10021017000F0D9
:104390009DF9012804D10648017821B1002101705E
:1043A00010BD0121F2E70121F9E700000200002021
:1043B000030000202DE9F05F2C48002635460078E8
:1043C0003746032849D12A480078012845D0294892
:1043D0000078012841D0DFF8A0A0DFF8A0B0DFF816
:1043E000A090002409EBC400406800EB0A035B4581
:1043F00021D339F83480A8F10101B1F5AE7F1AD884
:10440000204A761C2049F6B2C2F80080884204DDBA
:104410001E4906F0D9F9294605E017494942884264
:1044200004DA0146284605F0F5FE0546B8F1960F78
:1044300001D27F1CFFB2641CE4B2E12CD2D3144839
:104440000021144A082E01D2134B04E005D9116053
:104450000A2F04D9114B13600160BDE8F09FB5F538
:10446000000F01DB0E49F7E70E49F5E704000020D5
:1044700026000020270000200000B8BD01005301E5
:104480004C1100205800002000009B430000B44362
:1044900054000020500000200000F0410000F0C156
:1044A00000007AC400007A442DE9F0472F48002626
:1044B0004FF6FF7500783746042850D12C48007815
:1044C00001284CD02B480078012848D02A4C2B4B8F
:1044D000DFF8AC90606D002140F2DB5833F83120FA
:1044E000A2F1010CC44509D2761CF6B2AA4205D24B
:1044F00003EBC10015464068C9F80020491CC9B249
:10450000E129EBD31F496065884203DD1E4906F0AF
:104510005BF960658046A16D06F056F91B4988423B
:1045200002DC1B49884201D93B2F01D1C4F85880D5
:10453000DFF86080184F052E13D9284605F0F4FFE8
:10454000164900F099F838600021606DFCF746FECE
:10455000C8F8000012483968814200DD3860BDE8C3
:10456000F08700203860C8F80000F8E70400002059
:104570002600002027000020D80000204C11002039
:1045800058000020000034430000B44300002041E4
:10459000000020C15400002050000020000096437D
:1045A000000070422DE9F047274A2849D089097850
:1045B0000446052946D126490978012942D02549D2
:1045C000097801293ED0254B2349254F1960DFF892
:1045D00094C0254B254D00214FF4FA7905EBC10617
:1045E00076683E4466451DD2B3F80080C84510D2B7
:1045F00035F8310008F1010800F1C80616821FFAEB
:1046000088F6A6F580781E80B8F1F30801D1A3F8EA
:10461000009035F83160B2F81080464502D2344639
:10462000134E3460491CC9B2E129D7D3D08105F0BB
:104630007BFF0546204605F077FF2946FCF77EFC08
:104640000C490860BDE8F087D80000200400002075
:1046500026000020270000200000F041500000202C
:10466000FFFF71BDFFFF05004C0000204C11002032
:1046700058000020540000202DE9F04106F099F880
:104680000E4E0546716A06F09FF805F097FD0C4A3C
:104690000C4B05F083FA07460C46284605F08EFDC4
:1046A0004FF03332084B05F079FA3A46234605F0CD
:1046B0009BFC04F05BFF7562BDE8F0819C0000206C
:1046C0009A9999999999B93F3333C3BF0C480021FE
:1046D00042891AB90B4BD3F814310BB101810AE0AE
:1046E00003895B1C9BB20381C82B04D90122428140
:1046F000018110467047012A00D141810020704796
:104700007C0000200000214210B5022000F011F8CA
:10471000032000F020F8002000F014F8002000F042
:104720002FF8002000F026F8BDE81040002000F02F
:104730001BB808B50323009002226B21D020FFF79D
:1047400059FB08BD08B50223009004221C21D0208B
:10475000FFF750FB08BD08B50223009004221B217F
:10476000D020FFF747FB08BD034601223721D020A8
:10477000FFF727BB034605226A21D020FFF721BBA4
:10478000034606226B21D020FFF71BBB3EB500215C
:10479000124800910191104A0291026081600173F8
:1047A000017501244FF460220461C2614160FDF78C
:1047B00055F808B1FCF794FC0920CDE90004072066
:1047C000029069460548FCF7C5FF08B1FCF788FC74
:1047D0000248FCF753FF3EBD00240140880300203F
:1047E0003EB5002411480094019402940E4984605F
:1047F000016004730475012505614FF46021446074
:10480000C161FDF72BF808B1FCF76AFC0820CDE97F
:104810000005694602940548FCF79CFF002801D07A
:10482000FCF75EFC3EBD000000280140B8030020FC
:104830002DE9F04385B000253E480095019502958D
:104840000395816941F020018161816901F02001B6
:104850000491816941F004018161816901F00401E1
:104860000491816941F0080181618069DFF8C880A5
:1048700000F008000490012210214046FDF7FAFBE9
:10488000DFF8B89000224FF238014846FDF7F2FBFE
:104890004FF40047002239464046FDF7EBFB01226A
:1048A0004FF440714846FDF7E5FB10200124032634
:1048B0008DE8710069464046FDF7ECFA2020CDE90D
:1048C0000005694602944046FDF7E4FA08208DE8A9
:1048D000710069464046FDF7DDFA4FF473408DE8FC
:1048E000710069464846FDF7D5FA20030090144848
:1048F000CDE9010469464046FDF7CCFA0097CDE9C1
:104900000145694640460394FDF7C4FA38208DE816
:104910003100694648460394FDF7BCFA01220221A2
:104920002820FDF72DFC2820FDF70CFC05B0BDE884
:10493000F08300000010024000080140000C01401C
:104940000000211010B596B000240F94109411941B
:10495000129413941C2168461494FBF751FD2021F6
:1049600007A8FBF74DFD30482E49C0E9001441F679
:104970001F41C0E9024180210461C0E90541FDF702
:10498000FBFF08B1FCF7ACFB4FF480500F900FA970
:104990002548FEF789F808B1FCF7A2FB2248FEF78C
:1049A00085FC08B1FCF79CFB139413A91E481494D2
:1049B000FDF7AEFF08B1FCF793FB6020CDE90004E2
:1049C00002940394049405940022694616480694C0
:1049D000FEF709FC08B1FCF783FB0C22694612487C
:1049E000FEF701FC08B1FCF77BFB079408940994DF
:1049F0004FF400500A94CDE90B4007A90A480E94E1
:104A0000FDF75CFF08B1FCF76BFB00210648FEF7E1
:104A10007DFC0C210448FEF779FC0348FEF7BCFB43
:104A200016B010BD002C0140E803002010B58AB07C
:104A30000024254804940594069407940894099446
:104A40000094019402944FF0804103940160472147
:104A5000C0E901144FF6FF71C0E9031480218161A0
:104A6000FDF78AFF08B1FCF73BFB4FF48050049040
:104A700004A91548FEF718F808B1FCF731FB1248F5
:104A8000FEF737FA08B1FCF72BFB089408A90E488B
:104A90000994FDF73DFF08B1FCF722FB0120CDE9A9
:104AA000004002940422694607480394FEF79AF9ED
:104AB00008B1FCF715FB04210348FEF749FA024848
:104AC000FDF7C6FF0AB010BD3004002010B58CB051
:104AD00024216846FBF794FC0024184809941649E1
:104AE0000A94C0E900144FF6FF71C0E90241046165
:104AF00084610320CDE900040120CDE902040A21EC
:104B00000491CDE90540CDE9074169460B48FEF720
:104B100036F808B1FCF7E4FA099409A907480A94A1
:104B2000FDF7F6FE08B1FCF7DBFA3C210348FEF77F
:104B3000BFF80CB010BD0000000400407804002055
:104B400010B58CB024216846FBF75AFC00241848A5
:104B5000099416490A94C0E900144FF6FF71C0E9A0
:104B60000241046184610320CDE900040120CDE904
:104B700002040A210491CDE90540CDE907416946C7
:104B80000B48FDF7FCFF08B1FCF7AAFA099409A944
:104B900007480A94FDF7BCFE08B1FCF7A1FA3C21D6
:104BA0000348FEF785F80CB010BD00000008004077
:104BB000C00400200C4810B50A4901604FF4E131EF
:104BC0004160002181600C22C160C0E90412816152
:104BD000C161FEF721FD002803D0BDE81040FCF7BD
:104BE0007FBA10BD00380140080500200E4810B5FE
:104BF0000C4901604FF461314160002181600C2259
:104C0000C160C0E904128161C161FEF705FD08B110
:104C1000FCF766FABDE81040012204490248FEF79D
:104C2000C1BD0000004400404C0500208E00002063
:104C30000E4810B50C4901604FF416514160002137
:104C400081600C22C160C0E904128161C161FEF77C
:104C5000E3FC08B1FCF744FABDE810400122044926
:104C60000248FEF79FBD000000480040900500206C
:104C70008F000020FEE7FEE710B40021084B0A4633
:104C80005FF0000003EBC004401CC0B262548028F7
:104C9000F8D3491CC9B20829F2D310BC00F0AEB851
:104CA000D405002010B57F2816D83F2914D8072333
:104CB000A3EBD10301F00701C1F107040121A140D9
:104CC000064CDBB204EBC000002AC25CC9B201D0C2
:104CD0000A4300E08A43C25410BD0000D4050020FE
:104CE000F0B516460D4607460024FFF7DBFF3246B7
:104CF00029463846FFF7D6FF2819C1B23246384652
:104D0000FFF7D0FF641CE4B2082CF5D3F0BD00001F
:104D100010B5394C0020C4F88C01642004F5C67429
:104D200001F04CFD012020600021AE2000F04AF986
:104D30000021D52000F046F90021502000F042F972
:104D40000021A82000F03EF900213F2000F03AF9B0
:104D50000021D32000F036F90021084600F032F996
:104D60000021402000F02EF900218D2000F02AF9CA
:104D70000021142000F026F90021202000F022F963
:104D80000021022000F01EF90021A12000F01AF9F4
:104D90000021C02000F016F90021DA2000F012F9FD
:104DA0000021122000F00EF90021812000F00AF904
:104DB0000021EF2000F006F90021D92000F002F9CF
:104DC0000021F12000F0FEF80021DB2000F0FAF8CD
:104DD0000021302000F0F6F80021A42000F0F2F8C5
:104DE0000021A62000F0EEF80021AF2000F0EAF844
:104DF000BDE81040FFF740BF0080214270B5114E62
:104E0000002400BF04F1B000C0B2002100F0DAF8C5
:104E10000021084600F0D6F80021102000F0D2F85A
:104E20005FF0000506EBC5000121005D00F0CAF847
:104E30006D1CEDB2802DF5D3641CE4B2082CE1D3D7
:104E400070BD0000D40500202DE9FF4F203A1F4619
:104E50000C46894602F0FF0A0025DDF834B032E046
:104E60000C2F09D01A4901EB0A104FF00008465DDB
:104E7000300607D55A4609E016490AEB4A0001EB0D
:104E80008000F2E7BBF1000F12D00022214600980B
:104E9000FFF708FF7006641C060EE4B2A4EB0900DD
:104EA000B84207D100984C46401CC0B2009008E0C0
:104EB0000122EBE708F1010000F0FF08B8F1080F4C
:104EC000D6D36D1CEDB2BD42CAD3BDE8FF8F000042
:104ED0007AAE000806AA00082DE9FF4F81B000262F
:104EE000DDF838A01D469346814634464FF0010850
:104EF0004FEA5A0727E0281B401EC1B20A2003F0E0
:104F0000DEFABBFBF0F00A21B0FBF1F201FB12006C
:104F100026B9691E8C4201DA48B101263030C2B28E
:104F200007FB0490C0B25346CDF8008006E007FBB3
:104F30000490C0B253462022CDF800800299FFF7BA
:104F400083FF641CE4B2AC42D5D305B0BDE8F08F5A
:104F5000F8B516460D460446012714E07A2C02D90E
:104F600000241035EDB23A2D03D900242546FFF771
:104F700083FE009732780C2329462046FFF764FF12
:104F80000834E4B2761C30780028E7D1F8BD000080
:104F900070B50A4D0A4E002435F814003178884265
:104FA00001D2012200E0002200212046FFF798FEF6
:104FB000641CE4B2802CEFD370BD00008802002096
:104FC0004A00002070B50F4C0025012211B1C4F831
:104FD000BC2101E0C4F8BC510B4B0021C3F8945133
:104FE000060602D5C3F8902101E0C3F89051C3F83A
:104FF00094214006491C000EC9B20829EED3C4F81A
:10500000BC2170BD0000214200802142884200DDA9
:105010000846904200DA1046704770472DE9F04785
:105020002A4C8946014660881F4690460025A0B953
:10503000104603F03FFA0246384603F03BFA1044AC
:105040001E2809DAA088401C80B2A0800A2804D952
:1050500001206080A58003E0A580608801281ED122
:10506000E088401C80B2E080C82801D9E5806580D6
:105070001748184E814212DD3068143805F03CFAAA
:10508000494605F065FA0AD23068143005F034FA62
:10509000494605F05DFB02D20220608002E0608894
:1050A000022811D12089401C80B22081642801D9B6
:1050B0002581658008EB070003F0FCF9462803DD35
:1050C00065800120BDE8F0870020FBE7D8000020C4
:1050D00000A08C46380000202DE9F04180461C4895
:1050E00015460E46007800282ED01A4C1A4F6089BB
:1050F00088B938680A3805F0FFF9414605F028FA02
:1051000009D238680A3005F0F7F9414605F020FB6E
:1051100001D206B91DB16089012802D016E0012034
:105120006081A089401C81B20020A181322901D96F
:10513000A0816081032E09DD032D07DD282E05DA0D
:10514000282D03DA60810120BDE8F0810020FBE713
:1051500002000020D8000020380000202DE9F04790
:1051600000261B4C35463146C4F88461194AC2F802
:10517000846102F5C27204F5C274FBF705FF0127D2
:105180001760FBF701FF2160FBF7FEFE2760A4F527
:10519000C274FBF7F9FE1160FBF7F6FEDFF83890FA
:1051A000884600BFC4F88481FBF7EEFE0220FCF7BE
:1051B00057F8010929F815106D1CEDB2C4F8847177
:1051C000FBF7E2FE761CF6B2802EEBD3BDE8F0874B
:1051D0000000214200802142880200202DE9F04F8A
:1051E00089B0684C07A8CDE9004004F1260106AB60
:1051F00002AA881F01F066FC2088C0057ED50298AF
:1052000005F07AF96FF01D06314605F0B2FB8046D5
:105210006060039805F070F9314605F0AAFB074677
:10522000A060049805F068F9314605F0A2FB054638
:10523000E060059805F060F9314605F09AFB0646F6
:1052400020610121404605F094FB294605F0B4F9A0
:1052500005464FF040484146384605F0ADF9314625
:1052600005F0AAF9294604F0D5FF04F0A7FF00F0E5
:1052700035FEDFF814A14FF066394A46534604F074
:105280008DFC04F073F96061E0680121054605F0CA
:1052900070FB8346294605F08FF90546A068414614
:1052A000064605F089F9314605F086F9294605F0EC
:1052B0008BFA4FF07E5104F0ADFF04F07FFF0746FC
:1052C0000D460121606805F054FB314605F074F984
:1052D00006465846216905F06FF9314604F09AFFF9
:1052E00004F06CFF3A462B4601F040F84A4653461C
:1052F00004F054FC04F03AF9A06100E03FE02169B9
:105300000191084605F058F9E16807460846009102
:1053100005F052F9A16806468B46584605F04CF94F
:10532000616805468846404605F046F9294604F07E
:1053300071FF314605F048FA394605F045FA04F0A8
:105340003DFF06460D464046019905F035F90746F2
:105350005846009905F030F9394604F05BFF012109
:1053600005F007FB04F02AFF32462B4600F0FEFF53
:105370004A46534604F012FC04F0F8F8E06109B024
:10538000BDE8F08FF401002066A64C4010B50E4C2D
:105390000120C4F88C010F2004F5C67401F028FA2E
:1053A00000222260094801880B060CD54488890632
:1053B00004EB9121AA2461434FF47A74B1FBF4F118
:1053C000034B1960028010BD0000214264000020E0
:1053D000580000200021022805D0032809D0042805
:1053E00009D0002070474FF08042506A516200B2ED
:1053F0007047034A00E0034A1068116000B270472A
:10540000240400402408004010B54221D020FEF7BB
:1054100097FB04464121D020FEF792FB04EB0020CD
:1054200005F082F8B0F18E4F03DD4FF08F4105F0AB
:10543000CBF9094904F062FF04F0C0FE074A084BAB
:1054400004F0C6F80022074B04F0A8FB04F08EF825
:10545000BDE8104005F014B80000AA43A4703D0A4E
:10546000D7434240000024407047000007480178BD
:105470000748072904D0062905D00021016070479C
:105480006FF00801FAE76FF00301F7E7040000206E
:105490003800002030B500230124114A002804DD23
:1054A000C2F8B841C2F8BC3103E0C2F8B831C2F862
:1054B000BC4102F0FFFF0B4D2860002904DDC2F85B
:1054C000B441C2F8B03103E0C2F8B431C2F8B0411F
:1054D000084602F0EFFF03490C31086030BD0000C0
:1054E00000802142342C0140FCF7D0BD30B593B090
:1054F00028216846FAF784FF14210AA8FAF780FFEA
:10550000002501200F9510951195010412958DE845
:10551000230004904FF4E010CDE908100224079412
:105520006846FDF725F808B172B6FEE70AA90F2014
:1055300081E831004FF48060CDE90D0502210AA811
:10554000FCF72AFF08B172B6FEE74FF40040119055
:105550000F940FA8FCF7AAFE002801D072B6FEE750
:1055600013B030BD704700000148FDF761BD000079
:1055700030040020F0B50268164B174C174D4FF061
:105580008047984205D0B84203D0A04201D0A8423B
:1055900003D122F070064A683243984205D0B842DF
:1055A00003D0A04201D0A84203D122F44074CA68BB
:1055B00022434C6922F08002224302608A68C26260
:1055C0000A688262984201D109690163012141613F
:1055D000F0BD0000002C0140000400400008004025
:1055E00010B501F01F030121046A99408C43046245
:1055F000016A9A401143016210BD10B5846842EA05
:10560000032224F47F440A432243826010BD82684F
:1056100022F070020A4342F00701816070470000E7
:1056200030B5026A22F001020262026A43688469AC
:1056300024F073050C682C4322F002058A682A4383
:105640000A4DA8420BD122F00805CA6823F4407322
:105650002A434D6922F004021D438B692B434360AA
:10566000846149684163026230BD0000002C014042
:1056700030B5026A22F010020262026A436884694D
:105680000D6824F4E64444EA05248D6822F02002E3
:1056900042EA05120B4DA8420ED1CD6822F08002DD
:1056A00042EA05124D6923F4406343EA85038D699C
:1056B00022F0400243EA85034360846149688163C4
:1056C000026230BD002C014030B5026A22F48072C3
:1056D0000262036A4268C46923F4007324F073050C
:1056E0000C682C438D6843EA05230C4DA8420ED16B
:1056F000CD6823F4006343EA05234D6922F4405248
:1057000042EA05128D6923F4806342EA0512426081
:10571000C4614968C163036230BD0000002C0140D0
:1057200030B5026A22F480520262046A4268C36998
:105730000D6823F4E64343EA05238D6824F40054FE
:1057400044EA0534064DA84204D14D6922F4804252
:1057500042EA85124260C36149680164046230BD57
:10576000002C014010B5036A046A24F001040462AD
:10577000846924F0F00444EA021423F00A020A4384
:105780008461026210BD000070B5046A24F0010457
:1057900004628469056A0F4EB04208D0B0F1804FB0
:1057A00005D00D4EB04202D00C4EB04203D124F0D1
:1057B0000304144301E044F001041A0724F0F00448
:1057C00044EA126225F00A0301F00A0119438261DA
:1057D000016270BD002C0140000400400008004040
:1057E00010B5036A23F0100303628369046A23F48B
:1057F000704343EA023224F0A00343EA01118261BC
:10580000016210BD30B5046A24F01004046284699A
:10581000056A24F4407444EA022222F470444FF6EC
:10582000FF7202EA03322243A02425F0A00304EA17
:10583000011119438261016230BD00002DE9F04180
:1058400007462248244C06682148E56C0178214827
:105850000129007829D02149097801292BD000207D
:1058600060641F48007801282CD01E480078012869
:1058700028D00021384604F09FFE1B4F394604F023
:105880003DFD05463146606C04F096FE394604F055
:1058900035FD294604F0BEFC1449096804F0BAFC41
:1058A000A064BDE8F04104F0EBBD04F03DFE01460C
:1058B00085F0004003E004F037FE0146284604F07E
:1058C0001DFDCDE70A480168D4E700001C00002058
:1058D0002600002001000020D80000202700002022
:1058E00024000020250000200000C84254000020B1
:1058F000200000200D4A904209D80D4A904206DC53
:105900000C480078012802D0B1F57A7F0BDA0A4AF8
:1059100001200021C2F8B811C2F8BC11C2F8B411BC
:10592000C2F8B0117047002070470000000020C28C
:1059300000002042020000200080214210B5406A91
:105940000021C185C184FDF760FD10BD0168CA68F2
:1059500022F49072CA6001684A6922F001024A6129
:10596000016B012904D10168CA6822F01002CA60E3
:10597000202180F83E1000210163704708B590F89F
:105980003E10222901D0022008BD82684FF48053C6
:105990009A4201D1016921B1816A9A421BD04AB170
:1059A0000AE00268816A5268C2F308020A80816ACA
:1059B000891C08E0026972B10268526802F07F0235
:1059C0000A70816A491C8162C18D491E0904090C53
:1059D000C18503D019E002685268F1E70168CA681E
:1059E00022F02002CA600168CA6822F48072CA608C
:1059F00001684A6922F001024A61202180F83E10C4
:105A0000016B012903D0FDF7E3FE002008BD002152
:105A100001630168CA6822F01002CA6001680A685E
:105A2000D20602D50A6849680091818DFDF7ECFC29
:105A3000EBE7000070B5044600680169E26821F4F4
:105A40004051114301612169A0680843616908431D
:105A50002168CA6841F20C639A430243CA60206815
:105A60004169A26921F44071114341611E492068D6
:105A7000884202D1FCF736FD01E0FCF723FD00EB84
:105A8000C00101EB0012606864218000B2FBF0F3FA
:105A9000B3FBF1F36FF018067343B2FBF0F5B2FB02
:105AA000F0F605EB8305322303EB0515B5FBF1F5A5
:105AB000B6FBF1F605F0F00505EB0615B2FBF0F6C6
:105AC000B2FBF0F0B0FBF1F06FF01802504306EBC0
:105AD000800003EB0010B0FBF1F0216800F00F0034
